:020000040800F2
:1080000050040020B1A0000889A000088BA000083F
:108010008DA000088FA0000891A0000800000000BB
:1080200000000000000000000000000093A0000815
:1080300095A000080000000097A0000899A0000883
:10804000D5A00008D9A00008DDA00008E1A0000824
:10805000E5A00008E9A00008EDA00008F1A00008D4
:10806000F5A00008F9A00008FDA0000801A1000883
:1080700005A1000809A100080DA1000811A1000830
:1080800015A1000819A100081DA1000821A10008E0
:1080900025A1000829A100082DA1000831A1000890
:1080A00035A1000839A100083DA1000841A1000840
:1080B00045A1000849A100084DA1000851A10008F0
:1080C00055A1000859A100085DA1000861A10008A0
:1080D00065A1000869A100086DA1000871A1000850
:1080E00075A1000879A100087DA1000881A1000800
:1080F00085A1000889A100088DA1000891A10008B0
:1081000095A1000899A100089DA10008A1A100085F
:10811000A5A10008A9A10008ADA10008B1A100080F
:10812000B5A10008B9A10008BDA10008C1A10008BF
:10813000C5A100080000000000000000C9A100085F
:10814000CDA10008D1A10008D5A10008D9A100083F
:10815000DDA10008E1A10008E5A10008E9A10008EF
:10816000EDA10008F1A10008F5A10008F9A100089F
:10817000FDA1000801A2000805A2000800000000FF
:108180000000000009A2000800000000000000003C
:108190000DA20008000000000000000011A200086D
:1081A00000000000000000000000000015A2000810
:1081B00019A200081DA2000821A2000825A200089B
:1081C00029A200082DE9F0430024002500260027FD
:1081D0005FF00008DFF8DC05006810F00C000028F4
:1081E00006D0042807D0082807D00C2834D060E037
:1081F000DFF8C4055FE032485DE0DFF8C090D9F8F1
:10820000000010F03F000400D9F8000040020CD537
:10821000D9F80000C0F388102949A1FB0001220011
:10822000002300F0D9FA05000CE0D9F80000C0F3F3
:108230008810DFF88415A1FB00012200002300F064
:10824000CBFA0500D9F80000C0F30140401C400003
:108250000600B5FBF6F02EE0DFF86090D9F80000DC
:1082600010F03F000400D9F8000040020CD5D9F806
:108270000000C0F388101249A1FB00012200002376
:1082800000F0AAFA05000CE0D9F80000C0F388104D
:10829000DFF82415A1FB00012200002300F09CFA66
:1082A0000500D9F80000C0F302700700B5FBF7F035
:1082B00001E0DFF80405BDE8F08300000438024067
:1082C00000127A002DE9FC410400002520681028E6
:1082D00005D34FF45061DFF8D00400F004FC20789F
:1082E000C0077AD5606800280DD06068B0F5803F7F
:1082F00009D06068B0F5A02F05D040F60551DFF831
:10830000A80400F0F0FBDFF8AC04016811F00C01E8
:10831000042913D0016811F00C01082904D1DFF8F9
:10832000A0140968490209D4006810F00C000C2858
:108330000ED1DFF88C040068400209D5DFF8700424
:108340000068800349D56068002846D1012029E2F1
:108350006068B0F5803F06D1DFF85404016851F43D
:108360008031016018E06068B0F5A02F0AD1DFF815
:108370004004016851F480210160016851F48031AA
:10838000016009E0DFF82804016831F48031016000
:10839000016831F480210160606800280ED000F08F
:1083A000A3FB0500DFF808040068800315D400F083
:1083B0009BFB401B6528F5D30320F3E100F094FB01
:1083C0000500DFF8EC030068800306D500F08CFBA5
:1083D000401B6528F5D30320E4E12078800771D5A0
:1083E000E068002808D0E068012805D040F63D513B
:1083F000DFF8B40300F077FB2069202805D340F6AE
:108400003E51DFF8A40300F06EFBDFF8A80301681B
:1084100011F00C0F13D0016811F00C01082904D1E0
:10842000DFF89C130968490209D5006810F00C00B8
:108430000C2816D1DFF888030068400211D4DFF859
:1084400070030168890704D5E168012901D0012082
:10845000A8E1016831F0F801226951EAC201016026
:1084600030E0E06800281AD00120DFF858130860D7
:1084700000F03AFB0500DFF838030168890706D4ED
:1084800000F032FB401B0328F5D303208AE101688A
:1084900031F0F801226951EAC201016012E00020C6
:1084A000DFF82013086000F01FFB0500DFF8000371
:1084B0000068800706D500F017FB401B0328F5D3A2
:1084C00003206FE12078000734D56069002808D0C8
:1084D0006069012805D040F68451DFF8CC0200F035
:1084E00002FB6069002812D00120DFF8DC1208606E
:1084F00000F0FAFA0500DFF8C4020068800719D41A
:1085000000F0F2FA401B0328F5D303204AE10020D3
:10851000DFF8B412086000F0E7FA0500DFF89C020B
:108520000068800706D500F0DFFA401B0328F5D36A
:10853000032037E12078400740F186800026A068BC
:1085400000280BD0A068012808D0A068052805D015
:108550004FF45B61DFF8500200F0C5FADFF86C728F
:108560003868C0000CD400200090386850F080506B
:108570003860386810F080500090009801200600A4
:10858000DFF84C82D8F80000C00513D4D8F80000FA
:1085900050F48070C8F8000000F0A6FA0500D8F882
:1085A0000000C00506D400F09FFA401B0328F6D354
:1085B0000320F7E0A068012805D17C48016851F04C
:1085C0000101016015E0A068052809D1774801681C
:1085D00051F004010160016851F00101016008E0FF
:1085E00072480168490849000160016831F00401DE
:1085F0000160A06800280FD000F076FA05006B48F3
:108600000068800718D400F06FFA401B41F28931EE
:108610008842F4D30320C5E000F066FA0500634801
:108620000068800708D500F05FFA401B41F28931ED
:108630008842F4D30320B5E03000C0B2012803D152
:10864000386830F080503860A06900280AD0A069EE
:10865000012807D0A069022804D040F6F3515248FF
:1086600000F041FAA069002800F09B8051480068A2
:1086700010F00C00082800F09280A06902287DD13B
:10868000E069002808D0E069B0F5800F04D040F61A
:10869000FC51454800F027FA206A402804D340F6F0
:1086A000FD51414800F01FFA606A322804D3606A25
:1086B00040F2B111884204D340F6FE513A4800F02E
:1086C00012FAA06A02280DD0A06A04280AD0A06A73
:1086D000062807D0A06A082804D040F6FF51324887
:1086E00000F001FAE06A022802D3E06A102804D3FD
:1086F0004FF460612C4800F0F6F9206B022802D399
:10870000206B082804D340F60161274800F0EBF9FC
:10871000304E0020306000F0E7F90700DFF890806D
:10872000D8F80000800106D500F0DEF9C01B032850
:10873000F4D3032036E0E169206A0143606A51EA1C
:108740008011A06A4008401E51EA0041E06A51EAE7
:108750000061206B51EA007119480160012030600E
:1087600000F0C2F90500D8F80000800119D400F02B
:10877000BBF9401B0328F6D3032013E00020154962
:10878000086000F0B1F9050009480068800108D5CB
:1087900000F0AAF9401B0328F6D3032002E00120D1
:1087A00000E00020BDE8F681E89D00087038024036
:1087B00000380240083802400024F40074380240B7
:1087C0000438024000004742800E474240380240D1
:1087D0000070004060004742BBBBE1B1B2F5803F92
:1087E00080F07E80022A1ED98C46B1FBF2F102FB9A
:1087F00011C31B0443EA1043B3FBF2FC02FB1C331E
:1088000080B240EA0343B3FBF2F002FB103240EACD
:108810000C4000237047022A05D98446B0FBF2F0D1
:1088200002FB10C270474AB105D100F001024908AD
:108830005FEA3000704700220023704700F05AB909
:108840000B000200002100207047904271EB030CE6
:10885000F6D3B3F5803F2FD2F0B5B3FA83F7B1FA70
:1088600081F4A7F10F0E3D1B5340CEF1200602FA12
:108870000EF2F3415340B5F10F0746D80F3C2C449C
:108880004140C4F12006A040F1414140B1FBF3F664
:1088900003FB1611A2FB0645001BA94102D2761E5E
:1088A0008018594180EA010221FA0EF362FA0EF2B1
:1088B00000215A403046F0BD30B4B1FBF3FC03FB5D
:1088C0001C11A2FB0C45001BA94103D2ACF1010C09
:1088D0008018594130BC02460B4660460021704763
:1088E000B2F1807F65D3F0B5B2FA82F7B1FA81F4C4
:1088F000C7F10F063D1B22FA06F307F1110EF241F4
:1089000020355A40B5F10F07B8D94140C4F12006CF
:10891000A040F1414140B1FBF3FC03FB1C11A2FB61
:108920000C45001BA94103D2BCF1010C8018594130
:108930000F2F12D30F3FC90341EA5041B1FBF3F6A9
:1089400003FB1611A2FB0645D4EBC030A94102D2AD
:10895000761E8018594146EACC3C07B34140C7F126
:108960002006B840F1414140B1FBF3F603FB16117C
:10897000A2FB0645001BA94102D2761E8018594170
:1089800080EA010221FA0EF3C7F1200462FA0EF226
:108990000CFA07F05A402CFA04F13043F0BD80EA9B
:1089A000010221FA0EF3002162FA0EF260465A40EB
:1089B000F0BD8C46B1FBF2F102FB11C31B0243EA8E
:1089C0001063B3FBF2FC02FB1C331B024CEA0020D9
:1089D00043EA1063B3FBF2FC02FB1C331B024CEABC
:1089E000002043EA1063B3FBF2FC02FB1C331B02C2
:1089F0004CEA002043EA1063B3FBF2FC02FB1C329A
:108A00004CEA00200023704780B500F075F800F0B4
:108A10000DF800F08BF800F063F94FF47A7000F075
:108A2000B7F901212C4800F028FCF6E700B593B017
:108A30003422002106A800F067FC1422002101A8BE
:108A400000F062FC002000902448016851F0805141
:108A50000160006810F080500090009800200090A5
:108A60001F48016851F440410160006810F4404023
:108A700000900098012006905FF4A020079002204B
:108A80000C905FF480000D9004200E90A8200F90B1
:108A900002201090072011900220129006A8FFF7E4
:108AA00011FC002801D000F01DF80F2001900220D9
:108AB0000290002003904FF4A05004904FF4805097
:108AC0000590052101A800F029FC002801D000F044
:108AD00009F813B000BD0000000402404038024015
:108AE000007000407047704701480068704700BF41
:108AF000080000207047000080B50B48016851F461
:108B000000710160016851F480610160016851F4F5
:108B100080710160032000F0C9FD002000F014FE08
:108B200000F038FE002002BD003C0240F8B586B0DF
:108B300014220021684600F0E7FB002005905F4802
:108B4000016851F010010160016811F010010591F8
:108B5000059900210591016851F004010160016847
:108B600011F004010591059900210591016851F06A
:108B700020010160016811F0200105910599002193
:108B80000591016851F080010160016811F08001D8
:108B90000591059900210591016851F001010160DD
:108BA000016811F001010591059900210591016805
:108BB00051F002010160016811F00201059105996F
:108BC00000210591016851F040010160016811F038
:108BD00040010591059900210591016851F00801B6
:108BE0000160006810F008000590059844F28104C7
:108BF000334D00222100280000F018FB4FF6FF76CD
:108C00000096032001900020029069462D4800F054
:108C1000D3F84FF4005000902B48019000200290B0
:108C20002A4F6946380000F0C7F8009603200190EB
:108C3000002002906946264800F0BEF841F6FF7019
:108C4000009003200190002002906946380000F057
:108C5000B3F849F6F37000900320019000200290D1
:108C600069461C4800F0A8F80094012001900020FB
:108C70000290002003906946280000F09DF84BF612
:108C80007E70009003200190002002906946280029
:108C900000F092F8009603200190002002906946AF
:108CA0000D4800F089F80096032001900020029002
:108CB00069460A4800F080F807B0F0BD303802403D
:108CC00000040240001002400000111000080240A1
:108CD000001402400000024000180240000C024054
:108CE00080B52648264901605FF4E13141600021EA
:108CF00081600021C160002101610C2141610021DE
:108D000081610021C16100F065FD002801D0FFF7FD
:108D1000E9FE01BD10B586B004001422002101A8AF
:108D200000F0F2FA20681649884225D10020009010
:108D30001448016851F400310160006810F40030FB
:108D400000900098002000900F48016851F0010148
:108D50000160006810F00100009000980C20019064
:108D60000220029001200390032004900720059028
:108D700001A9064800F020F806B010BD0C00002044
:108D800000440040403802403038024000000240B9
:108D900070B50400FFF7A8FE0500260016F1010FCC
:108DA00002D0044800783618FFF79EFE401BB04200
:108DB000FAD370BD4C0000202DE9F84F04000D00DF
:108DC000002600275FF0000BDFF8E804844220D083
:108DD000DFF8E40484421CD0DFF8E004844218D0B9
:108DE000DFF8DC04844214D0DFF8D804844210D0C9
:108DF000DFF8D40484420CD0DFF8D004844208D0D9
:108E0000DFF8CC04844204D0B321DFF8C804FFF7B4
:108E10006AFE2868000404D02868000C00040028BA
:108E200004D0B421DFF8AC04FFF75DFE68680028C9
:108E300031D0686801282ED0686811282BD0686866
:108E4000022828D06868122825D06868DFF88814BE
:108E5000884220D06868DFF8841488421BD0686894
:108E6000DFF87C14884216D06868DFF878148842EE
:108E700011D06868DFF8701488420CD06868DFF899
:108E80006C14884207D06868032804D0B521DFF845
:108E90004404FFF728FEA86800280AD0A868012823
:108EA00007D0A868022804D0B621DFF82804FFF70D
:108EB0001AFE5FF00008B8F1100F80F0B5815FF086
:108EC000010919FA08F00600286830400700B74287
:108ED00040F0A7816868022803D06868122840F033
:108EE000C6802869002800F0A8802869092800F0B9
:108EF000A4802869002800F0A0802869002800F0DC
:108F00009C802869002800F098802869002800F0DB
:108F100094802869012800F090802869012800F0D9
:108F20008C802869022800F088802869022800F0D7
:108F300084802869022800F08080286903287CD07A
:108F40002869042879D02869042876D0286904285B
:108F500073D02869052870D0286905286DD0286944
:108F600009286AD02869062867D02869092864D0AA
:108F70002869072861D0286907285ED02869072852
:108F80005BD02869082858D02869082855D0286956
:108F9000082852D0286909284FD0286909284CD0C0
:108FA00028690A2849D028690A2846D028690B2848
:108FB00043D028690C2840D028690C283DD0286966
:108FC0000D283AD028690F2837D02869052834D0D1
:108FD00028690C2831D0286906282ED02869032852
:108FE0002BD02869042828D02869052825D028698D
:108FF000062822D0286906281FD0286907281CD0F7
:109000002869072819D02869072816D02869072851
:1090100013D02869082810D0286908280DD028699D
:1090200009280AD028690A2807D028690A2804D004
:10903000C721DFF8A002FFF756FD4046C00804EB49
:109040008000016A0F2218F00700C0B28000824041
:1090500091432A6918F00700C0B280008240114392
:109060008B464046C00804EB8000C0F820B0216861
:109070005FF0030A4046C0B240001AFA00F0814394
:109080002A7912F003024046C0B2400082401143E8
:109090000091009820606868012808D0686802285C
:1090A00005D06868112802D0686812282CD1E868B9
:1090B00000280DD0E86801280AD0E868022807D007
:1090C000E868032804D0DA21DFF80802FFF70BFD77
:1090D000A1684046C0B240001AFA00F08143EA6835
:1090E0004046C0B2400082401143A160606819FA56
:1090F00008F930EA09006A68C2F3001212FA08F2AD
:109100001043009000986060D4F80CB04046C0B2A4
:1091100040001AFA00FA3BEA0A0BA9684046C0B2BE
:109120004000814051EA0B0BC4F80CB06868C000E5
:1091300077D500200090DFF8B801016851F4804134
:109140000160006810F4804000900098DFF8A421CE
:109150004046800852F820100F2318F00300C0B2D8
:10916000800083409943DFF84C01844201D1002301
:1091700024E0DFF84401844201D101231EE0DFF83E
:109180003C01844201D1022318E0DFF8340184421B
:1091900001D1032312E0DFF82C01844201D1042322
:1091A0000CE0DFF82401844201D1052306E0DFF85A
:1091B0001C01844201D1062300E00723DBB218F032
:1091C0000300C0B28000834019434046800842F843
:1091D0002010DFF824211068B8436B68DB0300D54A
:1091E00038431060DFF814211168B9436B689B03A2
:1091F00000D539431160DFF808211068B8436B6867
:10920000DB0200D538431060DFF8F810D1F800B069
:109210003BEA070B6A68920201D557EA0B0BC1F8CB
:1092200000B018F1010846E6BDE8F18F70B5040002
:109230000E001500300080B2002804D140F29F11CA
:109240002448FFF750FC2800C0B2002808D02800AE
:10925000C0B2012804D04FF4D0711E48FFF743FC80
:109260002800C0B2002803D0300080B2A06103E023
:10927000300080B20004A06170BD38B504000D005C
:10928000280080B2002804D14FF4DB711148FFF7A9
:109290002AFC6169280080B20140280080B2814226
:1092A00004D1280080B20004A06102E0280080B24E
:1092B000A06131BD000002400004024000080240ED
:1092C000000C02400010024000140240001802404E
:1092D000001C0240789D00080000111000002110C1
:1092E00000003110000012100000221000003210A7
:1092F0004438024008380140003C0140043C014031
:10930000083C01400C3C014010B5044610460A469A
:109310000146204600F0C4FC204610BD2DE9F04176
:1093200004000D00002C01D101202CE12068002850
:1093300002D02068102805D34FF41071DFF87C02AA
:10934000FFF7D1FB002D23D0012D21D0022D1FD0FE
:10935000032D1DD0042D1BD0052D19D0062D17D09F
:10936000072D15D0082D13D0092D11D00A2D0FD09F
:109370000B2D0DD00C2D0BD00D2D09D00E2D07D09F
:109380000F2D05D040F24121DFF83002FFF7ABFB93
:10939000DFF82C72386810F00F00A84207D23D7039
:1093A000386810F00F00A84201D00120EBE02078CF
:1093B00080073AD52078400705D5DFF80802016814
:1093C00051F4E05101602078000705D5DFF8F40181
:1093D000016851F460410160A06800281DD0A068B8
:1093E00080281AD0A068902817D0A068A02814D090
:1093F000A068B02811D0A068C0280ED0A068D028DE
:109400000BD0A068E02808D0A068F02805D04FF461
:109410001971DFF8A801FFF766FBDFF8A8110A68E9
:1094200032F0F002A06802430A602078C00749D5F4
:10943000606800280DD0606801280AD060680228A2
:1094400007D06068032804D040F26B215B48FFF727
:109450004AFB6068012805D15B480068800313D48B
:10946000012090E06068022802D06068032805D1DE
:1094700055480068800107D4012084E05248006804
:10948000800701D401207EE0DFF83881D8F8001091
:109490008908890060680143C8F80010FFF724FBC1
:1094A0000600D8F8000010F00C006168B0EB810FE6
:1094B00008D0FFF719FB801B41F289318842F0D3B5
:1094C000032060E0386810F00F00854207D23D703D
:1094D000386810F00F00A84201D0012053E0207836
:1094E00040071ED5E068002814D0E068B0F5805F22
:1094F00010D0E068B0F5A05F0CD0E068B0F5C05FB8
:1095000008D0E068B0F5E05F04D040F2A9212B4814
:10951000FFF7E9FA2B490A6832F4E052E0680243A7
:109520000A60207800071FD52069002814D0206920
:10953000B0F5805F10D02069B0F5A05F0CD0206935
:10954000B0F5C05F08D02069B0F5E05F04D04FF4FB
:109550002C711A48FFF7C7FA1A48016831F46041C4
:10956000226951EAC2010160FEF72CFE1749154A33
:109570001268C2F30312895CC840154908600020D4
:1095800000F0E2F80020BDE8F08111480068704763
:1095900080B5FFF7FAFF0F490A4A1268C2F3822228
:1095A000895CC84002BD80B5FFF7EFFF0949054A55
:1095B0001268C2F34232895CC84002BDC89E0008EE
:1095C000003C02400838024000380240A0A00008D9
:1095D00004000020CCA0000810B410F00703DFF84E
:1095E000484122684FF6FF010A40DFF8401151EA76
:1095F00003210A43226010BC7047DFF82C01006889
:10960000C0F30220704710B4020052B2002A06D400
:109610000A01DFF81C31040064B21A5509E00A019E
:10962000DFF81031040064B214F00F04234403F88F
:10963000042C10BC704770B4030013F00704D4F17D
:109640000700052801D3042001E0D4F10700251DFF
:10965000072D01D2002500E0E51E012616FA00F0D4
:10966000401E0140A94016FA05F56D1E2A4011431F
:10967000080070BC704710B50400601EB0F1807F18
:1096800001D3012011E0601EDFF8AC1008600F214B
:109690005FF0FF30FFF7B7FF0020DFF8A010086091
:1096A0000720DFF89C100860002010BD10B50400F2
:1096B000072C0CD0062C0AD0052C08D0042C06D080
:1096C000032C04D09221DFF87C00FFF70CFA200075
:1096D000FFF782FF10BD2DE9F04104000D001600D8
:1096E0000027102E04D3AA21DFF85800FFF7FBF95A
:1096F000102D04D3AB21DFF84C00FFF7F4F9FFF78E
:109700007CFF8046320029004046FFF794FF0100AD
:10971000200040B2FFF777FFBDE8F08110B50400EC
:109720002000FFF7A8FF10BD0CED00E00000FA05D7
:1097300000E400E018ED00E014E000E018E000E0D4
:1097400010E000E0089D000810B504004FF47A70A6
:109750000D490978B0FBF1F00C490968B1FBF0F054
:10976000FFF7DCFF002801D001200CE0102C09D20B
:10977000002221005FF0FF30FFF7ADFF04480460D6
:10978000002000E0012010BD4C000020040000205B
:109790000000002081B0002000900C48016851F4C6
:1097A00080410160006810F4804000900098002023
:1097B00000900748016851F080510160006810F086
:1097C00080500090009801B0704700BF44380240BC
:1097D0004038024010B50400002C01D10120A1E066
:1097E000A06900282FD02068DFF83C11884214D0EF
:1097F0002068DFF8381188420FD02068DFF8301178
:1098000088420AD02068DFF82C11884205D040F247
:109810004911DFF82401FFF766F9A069002836D066
:10982000A069B0F5807F32D0A069B0F5007F2ED05E
:10983000A069B0F5407F2AD04FF4A571DFF8F80099
:10984000FFF751F923E02068DFF8DC1088421ED0D2
:109850002068DFF8D810884219D02068DFF8D010CF
:10986000884214D02068DFF8D41088420FD02068D6
:10987000DFF8CC1088420AD02068DFF8B8108842A0
:1098800005D04FF4A771DFF8B000FFF72CF9A068FE
:10989000002809D0A068B0F5805F05D04FF4A8710A
:1098A000DFF89400FFF71FF9E069002809D0E069AC
:1098B000B0F5004F05D040F25111DFF87C00FFF702
:1098C00012F994F83900002805D1002084F83800F6
:1098D0002000FFF71FFA242084F839002068C068B0
:1098E00030F400502168C860200000F02BF8206898
:1098F000006930F49040216808612068406930F0C8
:109900002A00216848612068C06850F4005021682E
:10991000C8600020E063202084F83900202084F80B
:109920003A00002010BD000000100140004400403B
:109930000048004000140140589E0008004C0040C0
:10994000005000402DE9F84304006068D249884285
:1099500004D340F6E531CF48FFF7C5F8E0680028AA
:1099600008D0E068B0F5005F04D040F6E631C948A1
:10997000FFF7B9F8206900280CD02069B0F5806F96
:1099800008D02069B0F5C06F04D040F6E731C14877
:10999000FFF7A9F860694FF6F371084202D16069D8
:1099A000002804D140F6E831BA48FFF79CF8206857
:1099B000016931F44051E068014320680161A56804
:1099C0002069054360690543E06905432068C16873
:1099D000B248014029432068C1602068416931F4E0
:1099E0004071A069014320684161E069B0F5004F12
:1099F00040F0A6802068A549884203D02068A44989
:109A000088424ED1FFF7CFFD0600FFF7CCFD0700DF
:109A1000FFF7C9FD8046FFF7C6FD8146FFF7C3FD8E
:109A200064211922564363685B00B6FBF3F3642696
:109A3000B3FBF6F3574366687600B7FBF6F602FB16
:109A400008F867687F00B8FBF7F75FF0640CB7FBB6
:109A5000FCF701FB1766F60032366427B6FBF7F613
:109A6000760016F4F87616EB031602FB09F9636824
:109A70005B00B9FBF3F302FB00F260684000B2FB4D
:109A8000F0F06422B0FBF2F001FB1031C80032307C
:109A90006421B0FBF1F010F00700861920688660A1
:109AA000F1E0FFF775FD0600FFF772FD0700FFF715
:109AB0006FFD8046FFF76CFD8146FFF769FD64216D
:109AC0001922564363685B00B6FBF3F36426B3FBCD
:109AD000F6F3574366687600B7FBF6F602FB08F824
:109AE00067687F00B8FBF7F75FF0640CB7FBFCF723
:109AF00001FB1766F60032366427B6FBF7F67600F0
:109B000016F4F87616EB031602FB09F963685B009E
:109B1000B9FBF3F302FB00F260684000B2FBF0F027
:109B20006422B0FBF2F001FB1031C8003230642136
:109B3000B0FBF1F010F00700861920688660A2E003
:109B400020685249884203D02068514988424DD14B
:109B5000FFF729FD0600FFF726FD0700FFF723FDAD
:109B60008046FFF720FD8146FFF71DFD6421192285
:109B7000564363689B00B6FBF3F36426B3FBF6F32E
:109B800057436668B600B7FBF6F602FB08F867684D
:109B9000BF00B8FBF7F75FF0640CB7FBFCF701FB05
:109BA0001766360132366427B6FBF7F616F0F00674
:109BB00016EB031602FB09F963689B00B9FBF3F38C
:109BC00002FB00F260688000B2FBF0F06422B0FBA0
:109BD000F2F001FB1031080132306421B0FBF1F0EA
:109BE00010F00F008619206886604CE0FFF7D0FC6B
:109BF0000600FFF7CDFC0700FFF7CAFC8046FFF721
:109C0000C7FC8146FFF7C4FC6421192256436368F0
:109C10009B00B6FBF3F36426B3FBF6F35743666889
:109C2000B600B7FBF6F602FB08F86768BF00B8FBA2
:109C3000F7F75FF0640CB7FBFCF701FB1766360122
:109C400032366427B6FBF7F616F0F00616EB03166D
:109C500002FB09F963689B00B9FBF3F302FB00F216
:109C600060688000B2FBF0F06422B0FBF2F001FB10
:109C70001031080132306421B0FBF1F010F00F0018
:109C8000861920688660BDE8F1830000001001405D
:109C900000140140589E0008A137A000F369FFFF9F
:109CA00062F30F2262F31F42401810F0030308D042
:109CB000C91A1FD3DB0748BF00F8012D28BF20F8C1
:109CC000022D130030B414461546103928BF20E980
:109CD0003C00FAD8490728BF20E90C0048BF40F8EB
:109CE000042D890028BF20F8022D48BF00F8012D5F
:109CF00030BC7047C91818BF00F8012DCB0728BF2A
:109D000000F8012D70470000433A5C30335F776FF5
:109D1000726B73706163655C6961725C6E75636CB4
:109D2000656F663434367A652D66772D7570677287
:109D30006164655C663434367A655F6170705C447A
:109D40007269766572735C53544D33324634787859
:109D50005F48414C5F4472697665725C5372635C24
:109D600073746D3332663478785F68616C5F636FEB
:109D7000727465782E630000433A5C30335F776F0E
:109D8000726B73706163655C6961725C6E75636C44
:109D9000656F663434367A652D66772D7570677217
:109DA0006164655C663434367A655F6170705C440A
:109DB0007269766572735C53544D333246347878E9
:109DC0005F48414C5F4472697665725C5372635CB4
:109DD00073746D3332663478785F68616C5F677076
:109DE000696F2E6300000000433A5C30335F776F89
:109DF000726B73706163655C6961725C6E75636CD4
:109E0000656F663434367A652D66772D75706772A6
:109E10006164655C663434367A655F6170705C4499
:109E20007269766572735C53544D33324634787878
:109E30005F48414C5F4472697665725C5372635C43
:109E400073746D3332663478785F68616C5F726307
:109E5000635F65782E630000433A5C30335F776F51
:109E6000726B73706163655C6961725C6E75636C63
:109E7000656F663434367A652D66772D7570677236
:109E80006164655C663434367A655F6170705C4429
:109E90007269766572735C53544D33324634787808
:109EA0005F48414C5F4472697665725C5372635CD3
:109EB00073746D3332663478785F68616C5F756196
:109EC00072742E6300000000433A5C30335F776F9A
:109ED000726B73706163655C6961725C6E75636CF3
:109EE000656F663434367A652D66772D75706772C6
:109EF0006164655C663434367A655F6170705C44B9
:109F00007269766572735C53544D33324634787897
:109F10005F48414C5F4472697665725C5372635C62
:109F200073746D3332663478785F68616C5F726326
:109F3000632E63000F48016851F4700101600E49FF
:109F4000086850F00100086000200C4A10600A68A0
:109F50000B4802400A600B480B4A1060086830F456
:109F6000802008600020094908605FF0006008490F
:109F70000860704788ED00E0003802400838024071
:109F8000FFFFF6FE10300024043802400C38024077
:109F900008ED00E030B5016884684218416802EBC2
:109FA0005103C90703D54C4401E0491C05D19A422D
:109FB0000AD012F9011B12F8015B002904F8015BB9
:109FC000F3D4491EF7D5F2E70C3030BD10B5074980
:109FD00079441831064C7C44163404E00A68081DA4
:109FE000114488470146A142F8D110BD2C00000061
:109FF000380000004EF68851CEF20001086840F4A7
:10A0000070000860BFF34F8FBFF36F8F4FF0007089
:10A01000E1EE100A704700007DFFFFFF1002000014
:10A02000160000000000002000F00DF8002801D00C
:10A03000FFF7CCFFAFF300800020AFF30080FEF706
:10A04000E3FC00F002F80120704700F001B80000C6
:10A050000746384600F002F8FBE7000080B5AFF392
:10A060000080024A11001820ABBEFBE72600020068
:10A0700003480168034A127889180160704700BFDD
:10A08000080000204C0000207047FEE7FEE7FEE7D6
:10A09000FEE770477047704780B5FFF7E9FF01BDE5
:10A0A0000000000000000000010203040607080988
:10A0B0000148804701480047359F0008C1A00008BB
:10A0C000AFF30080FFF796FFFFF7AEFF0000000040
:10A0D00001020304FFF7FEBFFFF7FEBFFFF7FEBF5D
:10A0E000FFF7FEBFFFF7FEBFFFF7FEBFFFF7FEBFA4
:10A0F000FFF7FEBFFFF7FEBFFFF7FEBFFFF7FEBF94
:10A10000FFF7FEBFFFF7FEBFFFF7FEBFFFF7FEBF83
:10A11000FFF7FEBFFFF7FEBFFFF7FEBFFFF7FEBF73
:10A12000FFF7FEBFFFF7FEBFFFF7FEBFFFF7FEBF63
:10A13000FFF7FEBFFFF7FEBFFFF7FEBFFFF7FEBF53
:10A14000FFF7FEBFFFF7FEBFFFF7FEBFFFF7FEBF43
:10A15000FFF7FEBFFFF7FEBFFFF7FEBFFFF7FEBF33
:10A16000FFF7FEBFFFF7FEBFFFF7FEBFFFF7FEBF23
:10A17000FFF7FEBFFFF7FEBFFFF7FEBFFFF7FEBF13
:10A18000FFF7FEBFFFF7FEBFFFF7FEBFFFF7FEBF03
:10A19000FFF7FEBFFFF7FEBFFFF7FEBFFFF7FEBFF3
:10A1A000FFF7FEBFFFF7FEBFFFF7FEBFFFF7FEBFE3
:10A1B000FFF7FEBFFFF7FEBFFFF7FEBFFFF7FEBFD3
:10A1C000FFF7FEBFFFF7FEBFFFF7FEBFFFF7FEBFC3
:10A1D000FFF7FEBFFFF7FEBFFFF7FEBFFFF7FEBFB3
:10A1E000FFF7FEBFFFF7FEBFFFF7FEBFFFF7FEBFA3
:10A1F000FFF7FEBFFFF7FEBFFFF7FEBFFFF7FEBF93
:10A20000FFF7FEBFFFF7FEBFFFF7FEBFFFF7FEBF82
:10A21000FFF7FEBFFFF7FEBFFFF7FEBFFFF7FEBF72
:10A22000FFF7FEBFFFF7FEBFFFF7FEBF0010FC0009
:07A230000124F4BB00000152
:040000050800A0C18E
:00000001FF
