:020000040800F2
:108000005004002095A30008A1A20008A3A2000824
:10801000A5A20008A7A20008A9A20008000000006D
:10802000000000000000000000000000ABA20008FB
:10803000ADA2000800000000AFA20008B1A2000835
:10804000B9A30008BDA30008C1A30008C5A3000888
:10805000C9A30008CDA30008D1A30008D5A3000838
:10806000D9A30008DDA30008E1A30008E5A30008E8
:10807000E9A30008EDA30008F1A30008F5A3000898
:10808000F9A30008FDA3000801A4000805A4000846
:1080900009A400080DA4000811A4000815A40008F4
:1080A00019A400081DA4000821A4000825A40008A4
:1080B00029A400082DA4000831A4000835A4000854
:1080C00039A400083DA4000841A4000845A4000804
:1080D00049A40008B9A200084DA4000851A4000852
:1080E00055A4000859A400085DA4000861A4000874
:1080F00065A4000869A400086DA4000871A4000824
:1081000075A4000879A400087DA4000881A40008D3
:1081100085A4000889A400088DA4000891A4000883
:1081200095A4000899A400089DA40008A1A4000833
:10813000A5A400080000000000000000A9A4000899
:10814000ADA40008B1A40008B5A40008B9A40008B3
:10815000BDA40008C1A40008C5A40008C9A4000863
:10816000CDA40008D1A40008D5A40008D9A4000813
:10817000DDA40008E1A40008E5A400080000000058
:1081800000000000E9A4000800000000000000005A
:10819000EDA400080000000000000000F1A40008A9
:1081A000000000000000000000000000F5A400082E
:1081B000F9A40008FDA4000801A5000805A5000811
:1081C00009A5000810B50400002C01D10120A1E090
:1081D000A06900282FD02068DFF83C11884214D015
:1081E0002068DFF8381188420FD02068DFF830119E
:1081F00088420AD02068DFF82C11884205D040F26E
:108200004911DFF8240100F01AFCA069002836D0DB
:10821000A069B0F5807F32D0A069B0F5007F2ED084
:10822000A069B0F5407F2AD04FF4A571DFF8F800BF
:1082300000F005FC23E02068DFF8DC1088421ED047
:108240002068DFF8D810884219D02068DFF8D010F5
:10825000884214D02068DFF8D41088420FD02068FC
:10826000DFF8CC1088420AD02068DFF8B8108842C6
:1082700005D04FF4A771DFF8B00000F0E0FBA06874
:10828000002809D0A068B0F5805F05D04FF4A87130
:10829000DFF8940000F0D3FBE069002809D0E06922
:1082A000B0F5004F05D040F25111DFF87C0000F02E
:1082B000C6FB94F83900002805D1002084F8380066
:1082C000200000F0D7FB242084F839002068C06823
:1082D00030F400502168C860200000F08BF920685D
:1082E000006930F49040216808612068406930F0EE
:1082F0002A00216848612068C06850F40050216855
:10830000C8600020E063202084F83900202084F831
:108310003A00002010BD0000001001400044004061
:10832000004800400014014028A10008004C004013
:10833000005000402DE9F8430600306807683068B7
:10834000D0F80C803068D0F814900020002517F089
:108350000F04002C08D1B80606D55FEA886003D563
:10836000300000F0F0F888E0002C74D05FEAC970AB
:1083700002D418F4907F6ED017F00100C0B200282C
:1083800006D05FEAC85003D5F06B50F00100F063EF
:10839000780708D519F00100C0B2002803D0F06BAF
:1083A00050F00200F063B80708D519F00100C0B220
:1083B000002803D0F06B50F00400F063380708D5B4
:1083C00019F00100C0B2002803D0F06B50F0080093
:1083D000F063F06B00283DD0B80605D55FEA8860F1
:1083E00002D5300000F0AFF830684069800910F025
:1083F00001000500F06B000701D4002D25D03000EE
:1084000000F03DF83068406940061AD53068406990
:1084100030F0400031684861706B00280DD00FF2D9
:108420008100716B0865706B00F06CFB002811D047
:10843000706B716B096D88470CE0300000F076FBC3
:1084400008E0300000F072FB04E0300000F06EFB4A
:108450000020F06311E0380606D55FEA086003D516
:10846000300000F029F808E0780606D55FEA486099
:1084700003D5300000F057F8FFE7BDE8F18301684D
:10848000C96831F490710268D1600168496949088E
:10849000490002685161202180F83A1070470000BD
:1084A00038B50400A56B0020E8850020E88428008A
:1084B00000F03CFB31BD0000010091F8390021289B
:1084C0002FD18868B0F5805F11D1086A020010884A
:1084D000C005C00D0B6858600869002803D1086A00
:1084E000801C086209E0086A401C086205E0086A0E
:1084F000431C0B6200780B685860C88C401EC8840F
:1085000080B200280BD10868C06830F080000B688A
:10851000D8600868C06850F040000B68D860002040
:1085200000E00220704710B504002068C06830F0F9
:1085300040002168C860202084F83900200000F045
:10854000F6FA002010BD38B5040094F83A0022284D
:108550004ED1A068B0F5805F16D1A06A05002069F1
:10856000002808D120684068C005C00D2880A06A96
:10857000801CA0621AE02068406800F0FF0028809C
:10858000A06A401CA06211E02069002806D1A06A00
:10859000411CA16221684968017007E0A06A411C82
:1085A000A1622168496811F07F010170E08D401ED1
:1085B000E08580B2002819D12068C06830F0200022
:1085C0002168C8602068C06830F480702168C86085
:1085D000206840694008400021684861202084F8F4
:1085E0003A00200000F0A4FA002002E0002000E0A1
:1085F000022032BD2DE9F84304006068D249884268
:1086000004D340F6E531CF4800F019FAE0680028BD
:1086100008D0E068B0F5005F04D040F6E631C94804
:1086200000F00DFA206900280CD02069B0F5806FA9
:1086300008D02069B0F5C06F04D040F6E731C148DA
:1086400000F0FDF960694FF6F371084202D16069EC
:10865000002804D140F6E831BA4800F0F0F920686B
:10866000016931F44051E068014320680161A56867
:108670002069054360690543E06905432068C168D6
:10868000B248014029432068C1602068416931F443
:108690004071A069014320684161E069B0F5004F75
:1086A00040F0A6802068A549884203D02068A449EC
:1086B00088424ED100F083FB060000F080FB0700EB
:1086C00000F07DFB804600F07AFB814600F077FBEE
:1086D00064211922564363685B00B6FBF3F36426FA
:1086E000B3FBF6F3574366687600B7FBF6F602FB7A
:1086F00008F867687F00B8FBF7F75FF0640CB7FB1A
:10870000FCF701FB1766F60032366427B6FBF7F676
:10871000760016F4F87616EB031602FB09F9636887
:108720005B00B9FBF3F302FB00F260684000B2FBB0
:10873000F0F06422B0FBF2F001FB1031C8003230DF
:108740006421B0FBF1F010F0070086192068866004
:10875000F1E000F029FB060000F026FB070000F026
:1087600023FB804600F020FB814600F01DFB6421C6
:108770001922564363685B00B6FBF3F36426B3FB30
:10878000F6F3574366687600B7FBF6F602FB08F887
:1087900067687F00B8FBF7F75FF0640CB7FBFCF786
:1087A00001FB1766F60032366427B6FBF7F6760053
:1087B00016F4F87616EB031602FB09F963685B0002
:1087C000B9FBF3F302FB00F260684000B2FBF0F08B
:1087D0006422B0FBF2F001FB1031C800323064219A
:1087E000B0FBF1F010F00700861920688660A2E067
:1087F00020685249884203D02068514988424DD1AF
:1088000000F0DDFA060000F0DAFA070000F0D7FA0F
:10881000804600F0D4FA814600F0D1FA6421192292
:10882000564363689B00B6FBF3F36426B3FBF6F391
:1088300057436668B600B7FBF6F602FB08F86768B0
:10884000BF00B8FBF7F75FF0640CB7FBFCF701FB68
:108850001766360132366427B6FBF7F616F0F006D7
:1088600016EB031602FB09F963689B00B9FBF3F3EF
:1088700002FB00F260688000B2FBF0F06422B0FB03
:10888000F2F001FB1031080132306421B0FBF1F04D
:1088900010F00F008619206886604CE000F084FA22
:1088A000060000F081FA070000F07EFA804600F032
:1088B0007BFA814600F078FA6421192256436368F6
:1088C0009B00B6FBF3F36426B3FBF6F357436668ED
:1088D000B600B7FBF6F602FB08F86768BF00B8FB06
:1088E000F7F75FF0640CB7FBFCF701FB1766360186
:1088F00032366427B6FBF7F616F0F00616EB0316D1
:1089000002FB09F963689B00B9FBF3F302FB00F279
:1089100060688000B2FBF0F06422B0FBF2F001FB73
:108920001031080132306421B0FBF1F010F00F007B
:10893000861920688660BDE8F183000000100140C0
:108940000014014028A10008A137A000F369FFFF2F
:1089500010B500F04DFA00F013F800F063FA00F0E3
:108960006FF8334C01222021200000F02BFD4FF442
:108970007A7000F095FD2021200000F04AFDF6E716
:1089800000B593B03422002106A800F09DFD14220A
:10899000002101A800F098FD002000902548016802
:1089A00051F080510160006810F0805000900098F4
:1089B000002000902048016831F4404151F480418A
:1089C0000160006810F4404000900098022006907A
:1089D0000120099010200A9002200C9000200D9098
:1089E00010200E904FF4A8700F90042010900220D9
:1089F00011900220129006A800F0F0FD002801D08E
:108A000000F01CF80F20019002200290002003903B
:108A10004FF48050049000200590022101A800F03E
:108A200089F8002801D000F009F813B000BD00005B
:108A3000000002404038024000700040704770471C
:108A400080B52B482B4901605FF4E1314160002182
:108A500081600021C160002101610C214161002180
:108A600081610021C161FFF7ADFB002801D0FFF754
:108A7000E5FF01BD10B586B004001422002101A855
:108A800000F022FD20681B4988422ED10020009072
:108A90001948016851F010010160006810F01000E1
:108AA00000900098002000901448016851F00101E6
:108AB0000160006810F00100009000984FF4C06061
:108AC00001900220029001200390032004900720CF
:108AD000059001A90A4800F03BFA00220021252058
:108AE00001F095F8252001F0B5F806B010BD0000A2
:108AF0000C00002000100140443802403038024091
:108B000000000240010091F83500022803D08020C7
:108B10004865012009E0052081F8350008680068F3
:108B2000400840000A681060002070477047704796
:108B3000704700002DE9F04104000D00002C01D128
:108B400001202CE12068002802D02068102805D3DD
:108B50004FF41071DFF87C02FFF771FF002D23D076
:108B6000012D21D0022D1FD0032D1DD0042D1BD08F
:108B7000052D19D0062D17D0072D15D0082D13D08F
:108B8000092D11D00A2D0FD00B2D0DD00C2D0BD08F
:108B90000D2D09D00E2D07D00F2D05D040F241210B
:108BA000DFF83002FFF74BFFDFF82C72386810F067
:108BB0000F00A84207D23D70386810F00F00A8429D
:108BC00001D00120EBE0207880073AD520784007DB
:108BD00005D5DFF80802016851F4E0510160207802
:108BE000000705D5DFF8F401016851F46041016028
:108BF000A06800281DD0A06880281AD0A0689028FE
:108C000017D0A068A02814D0A068B02811D0A06800
:108C1000C0280ED0A068D0280BD0A068E02808D0CB
:108C2000A068F02805D04FF41971DFF8A801FFF70C
:108C300006FFDFF8A8110A6832F0F002A0680243CC
:108C40000A602078C00749D5606800280DD06068A8
:108C500001280AD06068022807D06068032804D081
:108C600040F26B215B48FFF7EAFE6068012805D1FE
:108C70005B480068800313D4012090E060680228FC
:108C800002D06068032805D155480068800107D4E8
:108C9000012084E052480068800701D401207EE072
:108CA000DFF83881D8F8001089088900606801432E
:108CB000C8F8001000F0F6FF0600D8F8000010F029
:108CC0000C006168B0EB810F08D000F0EBFF801B57
:108CD00041F289318842F0D3032060E0386810F017
:108CE0000F00854207D23D70386810F00F00A8428F
:108CF00001D0012053E0207840071ED5E06800280D
:108D000014D0E068B0F5805F10D0E068B0F5A05FE7
:108D10000CD0E068B0F5C05F08D0E068B0F5E05F67
:108D200004D040F2A9212B48FFF789FE2B490A689D
:108D300032F4E052E06802430A60207800071FD551
:108D40002069002814D02069B0F5805F10D0206918
:108D5000B0F5A05F0CD02069B0F5C05F08D02069E5
:108D6000B0F5E05F04D04FF42C711A48FFF767FEAE
:108D70001A48016831F46041226951EAC201016078
:108D800000F0ACFB1749154A1268C2F30312895C64
:108D9000C84015490860002000F08AFF0020BDE8A7
:108DA000F08111480068704780B5FFF7FAFF0F495E
:108DB0000A4A1268C2F38222895CC84002BD80B5AB
:108DC000FFF7EFFF0949054A1268C2F34232895C96
:108DD000C84002BD98A10008003C0240083802408B
:108DE0000038024084A3000804000020B0A300085B
:108DF00080B50B48016851F400710160016851F4BD
:108E000080610160016851F480710160032000F00D
:108E1000E9FE002000F04CFF00F070FF002002BDD2
:108E2000003C024038B586B014220021684600F0AC
:108E30004BFB002005904048016851F0040101609F
:108E4000016811F00401059105990021059101685F
:108E500051F080010160016811F0800105910599D0
:108E600000210591016851F001010160016811F0D4
:108E700001010591059900210591016851F0020158
:108E80000160016811F00201059105990021059129
:108E9000016851F008010160006810F008000590B9
:108EA0000598264C00222021200000F08BFA4FF478
:108EB000005000902248019000200290214D694608
:108EC000280000F045F841F6FF7000900320019063
:108ED000002002906946280000F03AF849F6DF10B9
:108EE000009003200190002002906946200000F0CD
:108EF0002FF82020009001200190002002900020F7
:108F000003906946200000F023F84FF2F7700090BC
:108F1000032001900020029069460B4800F018F8E9
:108F20000420009003200190002002906946074829
:108F300000F00EF807B030BD3038024000000240AB
:108F4000000021100008024000040240000C024012
:108F50002DE9F84F04000D00002600275FF0000BFC
:108F6000DFF8E804844220D0DFF8E40484421CD017
:108F7000DFF8E004844218D0DFF8DC04844214D027
:108F8000DFF8D804844210D0DFF8D40484420CD037
:108F9000DFF8D004844208D0DFF8CC04844204D047
:108FA000B321DFF8C804FFF74AFD2868000404D0A5
:108FB0002868000C0004002804D0B421DFF8AC04B9
:108FC000FFF73DFD6868002831D0686801282ED081
:108FD000686811282BD06868022828D06868122891
:108FE00025D06868DFF88814884220D06868DFF8E8
:108FF000841488421BD06868DFF87C14884216D03D
:109000006868DFF87814884211D06868DFF8701457
:1090100088420CD06868DFF86C14884207D0686812
:10902000032804D0B521DFF84404FFF708FDA86841
:1090300000280AD0A868012807D0A868022804D010
:10904000B621DFF82804FFF7FAFC5FF00008B8F15A
:10905000100F80F0B5815FF0010919FA08F00600E1
:10906000286830400700B74240F0A78168680228AE
:1090700003D06868122840F0C6802869002800F0F4
:10908000A8802869092800F0A4802869002800F039
:10909000A0802869002800F09C802869002800F042
:1090A00098802869002800F094802869012800F041
:1090B00090802869012800F08C802869022800F03F
:1090C00088802869022800F084802869022800F03E
:1090D0008080286903287CD02869042879D02869F1
:1090E000042876D02869042873D02869052870D010
:1090F000286905286DD0286909286AD028690628BA
:1091000067D02869092864D02869072861D02869B0
:1091100007285ED0286907285BD02869082858D01E
:109120002869082855D02869082852D028690928B4
:109130004FD0286909284CD028690A2849D02869C5
:109140000A2846D028690B2843D028690C2840D02B
:1091500028690C283DD028690D283AD028690F28A5
:1091600037D02869052834D028690C2831D02869DF
:1091700006282ED0286903282BD02869042828D057
:109180002869052825D02869062822D028690628BC
:109190001FD0286907281CD02869072819D02869FA
:1091A000072816D02869072813D02869082810D066
:1091B000286908280DD0286909280AD028690A28B2
:1091C00007D028690A2804D0C721DFF8A002FFF7DA
:1091D00036FC4046C00804EB8000016A0F2218F0FC
:1091E0000700C0B28000824091432A6918F007004E
:1091F000C0B28000824011438B464046C00804EB59
:109200008000C0F820B021685FF0030A4046C0B279
:1092100040001AFA00F081432A7912F00302404616
:10922000C0B24000824011430091009820606868FD
:10923000012808D06868022805D06868112802D083
:10924000686812282CD1E86800280DD0E868012849
:109250000AD0E868022807D0E868032804D0DA2199
:10926000DFF80802FFF7EBFBA1684046C0B2400000
:109270001AFA00F08143EA684046C0B240008240DA
:109280001143A160606819FA08F930EA09006A68B8
:10929000C2F3001212FA08F21043009000986060C6
:1092A000D4F80CB04046C0B240001AFA00FA3BEACB
:1092B0000A0BA9684046C0B24000814051EA0B0B3E
:1092C000C4F80CB06868C00077D500200090DFF8C3
:1092D000B801016851F480410160006810F48040D9
:1092E00000900098DFF8A4214046800852F8201032
:1092F0000F2318F00300C0B2800083409943DFF8C9
:109300004C01844201D1002324E0DFF8440184426F
:1093100001D101231EE0DFF83C01844201D1022388
:1093200018E0DFF83401844201D1032312E0DFF8B2
:109330002C01844201D104230CE0DFF82401844293
:1093400001D1052306E0DFF81C01844201D1062388
:1093500000E00723DBB218F00300C0B280008340B6
:1093600019434046800842F82010DFF82421106895
:10937000B8436B68DB0300D538431060DFF8142175
:109380001168B9436B689B0300D539431160DFF85E
:1093900008211068B8436B68DB0200D538431060C1
:1093A000DFF8F810D1F800B03BEA070B6A689202C8
:1093B00001D557EA0B0BC1F800B018F1010846E6D9
:1093C000BDE8F18F70B504000E001500300080B2CA
:1093D000002804D140F29F112448FFF730FB2800F9
:1093E000C0B2002808D02800C0B2012804D04FF431
:1093F000D0711E48FFF723FB2800C0B2002803D01D
:10940000300080B2A06103E0300080B20004A061AF
:1094100070BD38B504000D00280080B2002804D1CA
:109420004FF4DB711148FFF70AFB6169280080B235
:109430000140280080B2814204D1280080B200049B
:10944000A06102E0280080B2A06131BD00000240AE
:109450000004024000080240000C024000100240DC
:109460000014024000180240001C024048A00008FE
:109470000000111000002110000031100000121037
:109480000000221000003210443802400838014029
:10949000003C0140043C0140083C01400C3C0140C0
:1094A00070B5040000F0FEFB0500260016F1010F68
:1094B00002D004480078361800F0F4FB401BB0429C
:1094C000FAD370BD4C00002010B5044610460A4681
:1094D0000146204600F032FC204610BD2DE9F04345
:1094E00000240025002600275FF00008DFF8DC05D7
:1094F000006810F00C00002806D0042807D00828C7
:1095000007D00C2834D060E0DFF8C4055FE03248B3
:109510005DE0DFF8C090D9F8000010F03F000400D3
:10952000D9F8000040020CD5D9F80000C0F388102B
:109530002949A1FB00012200002300F033FC0500B3
:109540000CE0D9F80000C0F38810DFF88415A1FB07
:1095500000012200002300F025FC0500D9F80000DE
:10956000C0F30140401C40000600B5FBF6F02EE0C1
:10957000DFF86090D9F8000010F03F000400D9F83F
:10958000000040020CD5D9F80000C0F38810124941
:10959000A1FB00012200002300F004FC05000CE008
:1095A000D9F80000C0F38810DFF82415A1FB0001F2
:1095B0002200002300F0F6FB0500D9F80000C0F3FC
:1095C00002700700B5FBF7F001E0DFF80405BDE825
:1095D000F08300000438024000127A002DE9FC41BB
:1095E000040000252068102805D34FF45061DFF8EF
:1095F000D004FFF724FA2078C0077AD560680028E5
:109600000DD06068B0F5803F09D06068B0F5A02F3C
:1096100005D040F60551DFF8A804FFF710FADFF88F
:10962000AC04016811F00C01042913D0016811F099
:109630000C01082904D1DFF8A0140968490209D4F3
:10964000006810F00C000C280ED1DFF88C040068C4
:10965000400209D5DFF870040068800349D56068CE
:10966000002846D1012029E26068B0F5803F06D18C
:10967000DFF85404016851F48031016018E060683B
:10968000B0F5A02F0AD1DFF84004016851F4802121
:109690000160016851F48031016009E0DFF82804BD
:1096A000016831F480310160016831F4802101608A
:1096B000606800280ED000F0F5FA0500DFF8080415
:1096C0000068800315D400F0EDFA401B6528F5D33F
:1096D0000320F3E100F0E6FA0500DFF8EC03006890
:1096E000800306D500F0DEFA401B6528F5D3032081
:1096F000E4E12078800771D5E068002808D0E068B0
:10970000012805D040F63D51DFF8B403FFF797F983
:109710002069202805D340F63E51DFF8A403FFF767
:109720008EF9DFF8A803016811F00C0F13D001685F
:1097300011F00C01082904D1DFF89C1309684902D3
:1097400009D5006810F00C000C2816D1DFF888034A
:109750000068400211D4DFF870030168890704D55E
:10976000E168012901D00120A8E1016831F0F80188
:10977000226951EAC201016030E0E06800281AD095
:109780000120DFF85813086000F08CFA0500DFF8BC
:1097900038030168890706D400F084FA401B0328C7
:1097A000F5D303208AE1016831F0F801226951EA1A
:1097B000C201016012E00020DFF82013086000F011
:1097C00071FA0500DFF800030068800706D500F095
:1097D00069FA401B0328F5D303206FE120780007C6
:1097E00034D56069002808D06069012805D040F6AA
:1097F0008451DFF8CC02FFF722F96069002812D00B
:109800000120DFF8DC12086000F04CFA0500DFF8F8
:10981000C4020068800719D400F044FA401B0328F2
:10982000F5D303204AE10020DFF8B412086000F00D
:1098300039FA0500DFF89C020068800706D500F0C1
:1098400031FA401B0328F5D3032037E12078400785
:1098500040F186800026A06800280BD0A06801286F
:1098600008D0A068052805D04FF45B61DFF85002EE
:10987000FFF7E5F8DFF86C723868C0000CD4002000
:109880000090386850F080503860386810F0805090
:109890000090009801200600DFF84C82D8F8000004
:1098A000C00513D4D8F8000050F48070C8F8000048
:1098B00000F0F8F90500D8F80000C00506D400F063
:1098C000F1F9401B0328F6D30320F7E0A068012834
:1098D00005D17C48016851F00101016015E0A068E4
:1098E000052809D17748016851F004010160016839
:1098F00051F00101016008E072480168490849001F
:109900000160016831F004010160A06800280FD0F7
:1099100000F0C8F905006B480068800718D400F013
:10992000C1F9401B41F289318842F4D30320C5E0DC
:1099300000F0B8F9050063480068800708D500F01A
:10994000B1F9401B41F289318842F4D30320B5E0DC
:109950003000C0B2012803D1386830F08050386040
:10996000A06900280AD0A069012807D0A0690228B0
:1099700004D040F6F3515248FFF761F8A06900287F
:1099800000F09B805148006810F00C00082800F09F
:109990009280A06902287DD1E069002808D0E069A2
:1099A000B0F5800F04D040F6FC514548FFF747F86A
:1099B000206A402804D340F6FD514148FFF73FF8A4
:1099C000606A322804D3606A40F2B111884204D33D
:1099D00040F6FE513A48FFF732F8A06A02280DD04F
:1099E000A06A04280AD0A06A062807D0A06A08281E
:1099F00004D040F6FF513248FFF721F8E06A022810
:109A000002D3E06A102804D34FF460612C48FFF7BA
:109A100016F8206B022802D3206B082804D340F6E6
:109A200001612748FFF70BF8304E0020306000F04E
:109A300039F90700DFF89080D8F80000800106D5DA
:109A400000F030F9C01B0328F4D3032036E0E169AD
:109A5000206A0143606A51EA8011A06A4008401EF2
:109A600051EA0041E06A51EA0061206B51EA00715D
:109A7000194801600120306000F014F90500D8F8A1
:109A80000000800119D400F00DF9401B0328F6D323
:109A9000032013E000201549086000F003F90500D9
:109AA00009480068800108D500F0FCF8401B032835
:109AB000F6D3032002E0012000E00020BDE8F6819B
:109AC000B8A0000870380240003802400838024050
:109AD0000024F40074380240043802400000474279
:109AE000800E47424038024000700040600047420C
:109AF00010B410F00703DFF8884122684FF6FF0129
:109B00000A40DFF8801151EA03210A43226010BCA9
:109B10007047DFF86C010068C0F302207047010055
:109B200049B200290AD4012210F01F018A40DFF84F
:109B3000581103005BB25B0941F82320704710B451
:109B4000020052B2002A06D40A01DFF840310400B4
:109B500064B21A5509E00A01DFF83431040064B236
:109B600014F00F04234403F8042C10BC704770B4A5
:109B7000030013F00704D4F10700052801D30420E3
:109B800001E0D4F10700251D072D01D2002500E0DA
:109B9000E51E012616FA00F0401E0140A94016FA03
:109BA00005F56D1E2A401143080070BC704710B5C2
:109BB0000400601EB0F1807F01D3012011E0601E1F
:109BC000DFF8D01008600F215FF0FF30FFF7B7FF1C
:109BD0000020DFF8C41008600720DFF8C01008601C
:109BE000002010BD10B50400072C0CD0062C0AD0A4
:109BF000052C08D0042C06D0032C04D09221DFF8C9
:109C0000A000FEF71CFF2000FFF772FF10BD2DE93A
:109C1000F04104000D0016000027102E04D3AA21E5
:109C2000DFF87C00FEF70BFF102D04D3AB21DFF82B
:109C30007000FEF704FFFFF76CFF8046320029003A
:109C40004046FFF794FF0100200040B2FFF777FF86
:109C5000BDE8F08110B50400200040B2002804D512
:109C6000BE21DFF83C00FEF7EAFE200040B2FFF71D
:109C700056FF10BD10B504002000FFF798FF10BD7F
:109C80000CED00E00000FA0500E100E000E400E077
:109C900018ED00E014E000E018E000E010E000E063
:109CA000D89F000801480068704700BF08000020E6
:109CB00010B504004FF47A700D490978B0FBF1F04B
:109CC0000C490968B1FBF0F0FFF7D4FF002801D080
:109CD00001200CE0102C09D2002221005FF0FF309F
:109CE000FFF795FF04480460002000E0012010BD4C
:109CF0004C000020040000200000002081B0002063
:109D000000900C48016851F480410160006810F433
:109D1000804000900098002000900748016851F0B2
:109D200080510160006810F080500090009801B0F0
:109D3000704700BF443802404038024062F30F22AF
:109D400062F31F42401810F0030308D0C91A1FD352
:109D5000DB0748BF00F8012D28BF20F8022D1300B3
:109D600030B414461546103928BF20E93C00FAD813
:109D7000490728BF20E90C0048BF40F8042D89009E
:109D800028BF20F8022D48BF00F8012D30BC7047D5
:109D9000C91818BF00F8012DCB0728BF00F8012D06
:109DA00070470000BBBBE1B1B2F5803F80F07E8020
:109DB000022A1ED98C46B1FBF2F102FB11C31B042F
:109DC00043EA1043B3FBF2FC02FB1C3380B240EACF
:109DD0000343B3FBF2F002FB103240EA0C400023D5
:109DE0007047022A05D98446B0FBF2F002FB10C28C
:109DF00070474AB105D100F0010249085FEA30001E
:109E0000704700220023704700F0E4B80B00020006
:109E1000002100207047904271EB030CF6D3B3F59C
:109E2000803F2FD2F0B5B3FA83F7B1FA81F4A7F1EE
:109E30000F0E3D1B5340CEF1200602FA0EF2F34105
:109E40005340B5F10F0746D80F3C2C444140C4F1B4
:109E50002006A040F1414140B1FBF3F603FB16118F
:109E6000A2FB0645001BA94102D2761E801859416B
:109E700080EA010221FA0EF362FA0EF200215A4042
:109E80003046F0BD30B4B1FBF3FC03FB1C11A2FB68
:109E90000C45001BA94103D2ACF1010C80185941BB
:109EA00030BC02460B46604600217047B2F1807F0D
:109EB00065D3F0B5B2FA82F7B1FA81F4C7F10F06B3
:109EC0003D1B22FA06F307F1110EF24120355A40EC
:109ED000B5F10F07B8D94140C4F12006A040F141C7
:109EE0004140B1FBF3FC03FB1C11A2FB0C45001B22
:109EF000A94103D2BCF1010C801859410F2F12D394
:109F00000F3FC90341EA5041B1FBF3F603FB1611C1
:109F1000A2FB0645D4EBC030A94102D2761E8018C0
:109F2000594146EACC3C07B34140C7F12006B8404E
:109F3000F1414140B1FBF3F603FB1611A2FB0645CC
:109F4000001BA94102D2761E8018594180EA010205
:109F500021FA0EF3C7F1200462FA0EF20CFA07F0B0
:109F60005A402CFA04F13043F0BD80EA010221FA94
:109F70000EF3002162FA0EF260465A40F0BD8C46A4
:109F8000B1FBF2F102FB11C31B0243EA1063B3FB06
:109F9000F2FC02FB1C331B024CEA002043EA106374
:109FA000B3FBF2FC02FB1C331B024CEA002043EA29
:109FB0001063B3FBF2FC02FB1C331B024CEA0020D3
:109FC00043EA1063B3FBF2FC02FB1C324CEA0020B4
:109FD0000023704770470000433A5C30335F776F6F
:109FE000726B73706163655C6961725C6E75636CE2
:109FF000656F6634343672652D66772D75706772BD
:10A000006164655C6634343672655F6170705C44AF
:10A010007269766572735C53544D33324634787886
:10A020005F48414C5F4472697665725C5372635C51
:10A0300073746D3332663478785F68616C5F636F18
:10A04000727465782E630000433A5C30335F776F3B
:10A05000726B73706163655C6961725C6E75636C71
:10A06000656F6634343672652D66772D757067724C
:10A070006164655C6634343672655F6170705C443F
:10A080007269766572735C53544D33324634787816
:10A090005F48414C5F4472697665725C5372635CE1
:10A0A00073746D3332663478785F68616C5F6770A3
:10A0B000696F2E6300000000433A5C30335F776FB6
:10A0C000726B73706163655C6961725C6E75636C01
:10A0D000656F6634343672652D66772D75706772DC
:10A0E0006164655C6634343672655F6170705C44CF
:10A0F0007269766572735C53544D333246347878A6
:10A100005F48414C5F4472697665725C5372635C70
:10A1100073746D3332663478785F68616C5F726334
:10A12000635F65782E630000433A5C30335F776F7E
:10A13000726B73706163655C6961725C6E75636C90
:10A14000656F6634343672652D66772D757067726B
:10A150006164655C6634343672655F6170705C445E
:10A160007269766572735C53544D33324634787835
:10A170005F48414C5F4472697665725C5372635C00
:10A1800073746D3332663478785F68616C5F7561C3
:10A1900072742E6300000000433A5C30335F776FC7
:10A1A000726B73706163655C6961725C6E75636C20
:10A1B000656F6634343672652D66772D75706772FB
:10A1C0006164655C6634343672655F6170705C44EE
:10A1D0007269766572735C53544D333246347878C5
:10A1E0005F48414C5F4472697665725C5372635C90
:10A1F00073746D3332663478785F68616C5F726354
:10A20000632E63000F48016851F4700101600E492C
:10A21000086850F00100086000200C4A10600A68CD
:10A220000B4802400A600B480B4A1060086830F483
:10A230008020086000200949086009480949086031
:10A240007047000088ED00E0003802400838024006
:10A25000FFFFF6FE10300024043802400C380240A4
:10A260000080000808ED00E030B5016884684218FD
:10A27000416802EB5103C90703D54C4401E0491C76
:10A2800005D19A420AD012F9011B12F8015B00298C
:10A2900004F8015BF3D4491EF7D5F2E70C3030BD6A
:10A2A0007047FEE7FEE7FEE7FEE77047704770473E
:10A2B00080B500F009F801BD80B50248FEF73AF814
:10A2C00001BD00000C00002003480168034A127819
:10A2D00089180160704700BF080000204C00002072
:10A2E00010B5074979441831064C7C44163404E013
:10A2F0000A68081D114488470146A142F8D110BDE3
:10A300002C000000380000004EF68851CEF200010B
:10A31000086840F470000860BFF34F8FBFF36F8F81
:10A320004FF00070E1EE100A704700003DFFFFFFA4
:10A33000DC010000160000000000002000F00DF815
:10A34000002801D0FFF7CCFFAFF300800020AFF36F
:10A350000080FEF7FDFA00F002F80120704700F0DF
:10A3600001B800000746384600F002F8FBE700009D
:10A3700080B5AFF30080024A11001820ABBEFBE7A6
:10A38000260002000000000000000000010203049B
:10A3900006070809014880470148004705A2000850
:10A3A000A5A30008AFF30080FFF7AEFFFFF7C6FFDD
:10A3B0000000000001020304FFF7FEBFFFF7FEBF2D
:10A3C000FFF7FEBFFFF7FEBFFFF7FEBFFFF7FEBFC1
:10A3D000FFF7FEBFFFF7FEBFFFF7FEBFFFF7FEBFB1
:10A3E000FFF7FEBFFFF7FEBFFFF7FEBFFFF7FEBFA1
:10A3F000FFF7FEBFFFF7FEBFFFF7FEBFFFF7FEBF91
:10A40000FFF7FEBFFFF7FEBFFFF7FEBFFFF7FEBF80
:10A41000FFF7FEBFFFF7FEBFFFF7FEBFFFF7FEBF70
:10A42000FFF7FEBFFFF7FEBFFFF7FEBFFFF7FEBF60
:10A43000FFF7FEBFFFF7FEBFFFF7FEBFFFF7FEBF50
:10A44000FFF7FEBFFFF7FEBFFFF7FEBFFFF7FEBF40
:10A45000FFF7FEBFFFF7FEBFFFF7FEBFFFF7FEBF30
:10A46000FFF7FEBFFFF7FEBFFFF7FEBFFFF7FEBF20
:10A47000FFF7FEBFFFF7FEBFFFF7FEBFFFF7FEBF10
:10A48000FFF7FEBFFFF7FEBFFFF7FEBFFFF7FEBF00
:10A49000FFF7FEBFFFF7FEBFFFF7FEBFFFF7FEBFF0
:10A4A000FFF7FEBFFFF7FEBFFFF7FEBFFFF7FEBFE0
:10A4B000FFF7FEBFFFF7FEBFFFF7FEBFFFF7FEBFD0
:10A4C000FFF7FEBFFFF7FEBFFFF7FEBFFFF7FEBFC0
:10A4D000FFF7FEBFFFF7FEBFFFF7FEBFFFF7FEBFB0
:10A4E000FFF7FEBFFFF7FEBFFFF7FEBFFFF7FEBFA0
:10A4F000FFF7FEBFFFF7FEBFFFF7FEBFFFF7FEBF90
:10A50000FFF7FEBFFFF7FEBFFFF7FEBF0010FC0026
:07A510000124F4BB0000016F
:040000050800A3A5A7
:00000001FF
