:020000040800F2
:1080000018060020D5AC000881AB000883AB00083F
:1080100085AB000887AB000889AB000800000000B2
:108020000000000000000000000000008BAB000812
:108030008DAB0008000000008FAB000891AB00087A
:1080400005AD000809AD00080DAD000811AD000830
:1080500015AD000819AD00081DAD000821AD0008E0
:1080600025AD000829AD00082DAD000831AD000890
:1080700035AD000839AD00083DAD000841AD000840
:1080800045AD000849AD00084DAD000851AD0008F0
:1080900055AD000859AD00085DAD000861AD0008A0
:1080A00065AD000869AD00086DAD000871AD000850
:1080B00099AB000875AD000879AD00087DAD0008EA
:1080C00081AD000885AD000889AD00088DAD0008C0
:1080D00091AD0008A3AB000895AD000899AD00086C
:1080E0009DAD0008A1AD0008A5AD0008A9AD000830
:1080F000ADAD0008B1AD00080000000000000000B8
:108100000000000000000000B5AD0008B9AD000897
:108110000000000000000000BDAD0008C1AD000877
:10812000C5AD0008C9AD0008CDAD0008D1AD00084F
:10813000D5AD0008D9AD0008DDAD0008E1AD0008FF
:10814000E5AD000800000000000000000000000095
:10815000000000000000000000000000000000001F
:108160000000000000000000E9AD0008EDAD0008CF
:10817000F1AD000800000000F5AD000800000000AF
:1081800000000000F9AD00082DE9F84F0400002CB4
:1081900001D101203FE32078C00740F1BE80DFF825
:1081A000F808016811F00C0104290AD0016811F0E7
:1081B0000C01082928D1006810F48030B0F5803F08
:1081C00022D14FF48040B0FA80F151F02001C9B2C1
:1081D0004909012903D1DFF8BC18096806E0B0FAA3
:1081E00080F1B0FA80F1DFF8C8180968B0FA80F0C1
:1081F00010F01F00C140C80740F18F806068002860
:1082000040F08B80012006E36068B0F5803F06D126
:10821000DFF88008016851F48031016026E0606871
:1082200000280AD1DFF86C08016831F48031016060
:10823000016831F48021016018E06068B0F5A02F7A
:108240000AD1DFF85008016851F48021016001680B
:1082500051F48031016009E0DFF83808016831F439
:1082600080310160016831F480210160DFF8381845
:108270000A6812091201A06802430A6060680028B7
:1082800025D000F02BFC05004FF48040B0FA80F1BF
:1082900051F02001C9B24909012903D1DFF8F417CF
:1082A000096806E0B0FA80F1B0FA80F1DFF8001852
:1082B0000968B0FA80F010F01F00C140C8072CD444
:1082C00000F00CFC401B6528DED30320A3E200F085
:1082D00005FC05004FF48040B0FA80F151F0200118
:1082E000C9B24909012903D1DFF8A817096806E0D6
:1082F000B0FA80F1B0FA80F1DFF8B4170968B0FA8B
:1083000080F010F01F00C140C80706D500F0E6FB62
:10831000401B6528DED303207DE22078800740F1F2
:10832000B080DFF87407016811F00C0F07D0016806
:1083300011F00C01082932D10068C0032FD45FF07E
:108340008040B0FA80F151F02001C9B249090129F9
:1083500003D1DFF84017096806E0B0FA80F1B0FAFF
:1083600080F1DFF84C170968B0FA80F010F01F00B8
:10837000C140C80704D52069012801D001204AE284
:10838000DFF8100701685FF0F852B2FA82F231F0BC
:10839000F801636913FA02F21143016071E0206988
:1083A00000283ED001205FF00041B1FA81F1DFF8F2
:1083B000042712EB8102106000F090FB05005FF0D3
:1083C0008040B0FA80F151F02001C9B24909012979
:1083D00003D1DFF8C016096806E0B0FA80F1B0FA00
:1083E00080F1DFF8CC160968B0FA80F010F01F00B9
:1083F000C140C80706D400F071FB401B0328DED340
:10840000032008E2DFF88C0601685FF0F852B2FA48
:1084100082F231F0F801636913FA02F2114301604C
:108420002FE000205FF00041B1FA81F1DFF88426EF
:1084300012EB8102106000F051FB05005FF08040FC
:10844000B0FA80F151F02001C9B24909012903D1E4
:10845000DFF84016096806E0B0FA80F1B0FA80F162
:10846000DFF84C160968B0FA80F010F01F00C14028
:10847000C80706D500F032FB401B0328DED30320DB
:10848000C9E1207800074ED5A069002825D0012039
:108490005FF00041B1FA81F1DFF8102612EB8102A2
:1084A000106000F01BFB05005FF08040B0FA80F127
:1084B000B0FA80F1B0FA80F1DFF8F4150968B0FA8B
:1084C00080F010F01F00C140C8072CD400F006FB5C
:1084D000401B0328E8D303209DE100205FF000410A
:1084E000B1FA81F1DFF8C42512EB8102106000F0CF
:1084F000F5FA05005FF08040B0FA80F1B0FA80F143
:10850000B0FA80F1DFF8A8150968B0FA80F010F031
:108510001F00C140C80706D500F0E0FA401B032841
:10852000E8D3032077E12078400740F1BC800027A2
:10853000DFF88485D8F80000C0000DD4D8F800001A
:1085400050F08050C8F80000D8F8000010F08050BB
:108550000090009801200700DFF86095D9F800002E
:10856000C00513D4D9F8000050F48070C9F8000099
:1085700000F0B4FA0500D9F80000C00506D400F0F8
:10858000ADFA401B6528F6D3032044E1E0680128DA
:1085900006D1DFF82C05016851F00101016025E0EA
:1085A000E06800280AD1DFF8180501684908490089
:1085B0000160016831F00401016017E0E0680528FE
:1085C0000AD1DFF8FC04016851F004010160016880
:1085D00051F00101016009E0DFF8E4040168490895
:1085E00049000160016831F004010160E068002881
:1085F00027D000F073FA05005FF08040B0FA80F1F8
:10860000B0FA80F151F04001C9B24909022903D101
:10861000DFF8AC14096804E0B0FA80F1DFF89014D8
:108620000968B0FA80F010F01F00C140C80730D4CC
:1086300000F054FA401B41F289318842DCD3032018
:10864000E9E000F04BFA05005FF08040B0FA80F1FD
:10865000B0FA80F151F04001C9B24909022903D1B1
:10866000DFF85C14096804E0B0FA80F1DFF8401428
:108670000968B0FA80F010F01F00C140C80708D5A3
:1086800000F02CFA401B41F289318842DCD30320F0
:10869000C1E03800C0B2012805D1D8F8000030F0A0
:1086A0008050C8F80000E069002800F0B380DFF8CF
:1086B000E883D8F8000010F00C00082800F096803D
:1086C000E069022864D15FF08009DFF8E8A30020A8
:1086D000B9FA89F11AEB8101086000F0FFF907008F
:1086E0005FF0400BBBFA8BF050F02000C0B24009A5
:1086F000012803D1DFF89C03006806E0BBFA8BF089
:10870000BBFA8BF0DFF8A8030068BBFA8BF111F01D
:108710001F01C840C00706D500F0E0F9C01B0328C0
:10872000DED3032077E0D8F8001031F47411606ACA
:108730000143206A0143C8F800100120B9FA89F109
:108740001AEB810ACAF8000000F0C8F90500BBFA6C
:108750008BF050F02000C0B24009012803D1DFF8AF
:108760003403006806E0BBFA8BF0BBFA8BF0DFF84D
:1087700040030068BBFA8BF111F01F01C840C0072D
:1087800048D400F0ABF9401B0328E0D3032042E0BB
:1087900000208021B1FA81F1DFF8182312EB810269
:1087A000106000F09BF905004020B0FA80F151F014
:1087B0002001C9B24909012903D1DFF8D81209689B
:1087C00006E0B0FA80F1B0FA80F1DFF8E41209684F
:1087D000B0FA80F010F01F00C140C8071AD500F0B1
:1087E0007DF9401B0328DFD3032014E0E069012852
:1087F00001D101200FE0D8F80000060016F4803007
:10880000216A884204D116F47010616A884201D04E
:10881000012000E00020BDE8F28F2DE9F0410400C6
:108820000D000026002C01D10120D6E0DFF8947263
:10883000386810F00700A8420BD23868C008C000A2
:1088400028433860386810F00700A84201D00120A2
:10885000C3E02078800707D5DFF83C120A6832F0C1
:10886000F002A06802430A602078C0077AD56068E9
:1088700001281DD14FF48040B0FA80F151F0200161
:10888000C9B24909012903D1DFF80812096806E0D5
:10889000B0FA80F1B0FA80F1DFF814120968B0FA8A
:1088A00080F010F01F00C140C8073DD4012094E0C3
:1088B000606802281CD14020B0FA80F151F02001FC
:1088C000C9B24909012903D1DFF8C811096806E0D6
:1088D000B0FA80F1B0FA80F1DFF8D4110968B0FA8B
:1088E00080F010F01F00C140C8071DD4012074E0C3
:1088F0005FF08040B0FA80F151F02001C9B249091F
:10890000012902D16349096805E0B0FA80F1B0FAA3
:1089100080F167490968B0FA80F010F01F00C1408B
:10892000C80701D4012058E0DFF86C81D8F80010A6
:108930008908890060680143C8F8001000F0CEF88B
:108940000600D8F8000010F00C006168B0EB810F51
:1089500008D000F0C3F8801B41F289318842F0D37F
:1089600003203AE0386810F0070085420BD23868DF
:10897000C008C00028433860386810F00700A842DB
:1089800001D0012029E02078400706D542490A6835
:1089900032F4E062E06802430A602078000707D5FD
:1089A0003D48016831F46051226951EAC201016019
:1089B00000F015F838490968434A11F0F0015FF0FA
:1089C0007063B3FA83F3D940515CC84034490860FE
:1089D0003448006800F088F80020BDE8F081F0B469
:1089E000002000210022002300242B4D2D6815F0CB
:1089F0000C06042E02D0082E02D025E0274824E0E1
:108A0000324815F470164FF47057B7FA87F7FE40E6
:108A1000805D0300244800682D4E10F00F005FF0C9
:108A20007047B7FA87F7F840305C0100E80305D5D6
:108A30001A48B0FBF1F05843020003E0254800FB60
:108A400003F00200100000E01448F0BC7047144826
:108A50000068704780B5FFF7FAFF0F4909681E4AA2
:108A600011F4E0615FF46003B3FA83F3D940515C21
:108A7000C84002BD80B5FFF7EAFF07490968164AFA
:108A800011F460515FF4E013B3FA83F3D940515C01
:108A9000C84002BD001002400410024000127A00DB
:108AA00004000020000000202C10024080044242FC
:108AB00024100240000042421C100240007000409E
:108AC0002010024000200240C4AC0008A4AC000802
:108AD000B4AC000800093D00FCAC00080148006887
:108AE000704700BF1402002010B504004FF47A70E4
:108AF0000D490978B0FBF1F00C490968B1FBF0F0C1
:108B000000F0AEF8002801D001200CE0102C09D2B2
:108B1000002221005FF0FF3000F086F80448046076
:108B2000002000E0012010BD08000020040000200B
:108B30000000002010B410F00703DFF83041226875
:108B40004FF6FF010A40DFF8281151EA03210A43DA
:108B5000226010BC7047DFF814010068C0F30220E7
:108B60007047010049B2002909D4012210F01F0109
:108B70008A40404903005BB25B0941F823207047FB
:108B800010B4020052B2002A05D40A013A4B040084
:108B900064B21A5508E00A01384B040064B214F0BC
:108BA0000F04234403F8042C10BC704770B4030076
:108BB00013F00704D4F10700052801D3042001E0D5
:108BC000D4F10700251D072D01D2002500E0E51E88
:108BD000012616FA00F0401E0140A94016FA05F5DC
:108BE0006D1E2A401143080070BC704710B5040088
:108BF000601EB0F1807F01D301200EE0601E20498D
:108C000008600F215FF0FF30FFF7BAFF00201D4919
:108C1000086007201C490860002010BD10B5040042
:108C20002000FFF787FF10BD2DE9F04104000D0083
:108C300016000027FFF78FFF8046320029004046CC
:108C4000FFF7B4FF0100200040B2FFF799FFBDE835
:108C5000F08110B50400200040B2FFF782FF10BD84
:108C600010B504002000FFF7C1FF10BD0CED00E0BF
:108C70000000FA0500E100E000E400E018ED00E08B
:108C800014E000E018E000E010E000E010B504009F
:108C9000002C01D1012035E0A0690028FFD1606FD0
:108CA000002805D1002084F87000200000F0A0FB0F
:108CB0002420606720680068400840002168086040
:108CC000200000F0F6F8012801D101201AE0606AC6
:108CD000002802D0200000F045FA2068406830F4F7
:108CE0009040216848602068806830F02A00216840
:108CF00088602068006850F001002168086020004A
:108D000000F09DFA10BD2DE9F84306003068C769F0
:108D10003068D0F800803068D0F8089040F60F0432
:108D20003C40002C0BD1B80609D55FEA886006D517
:108D3000306E002802D03000316E8847B7E0002C3A
:108D400000F093805FEAC97003D418F4907F00F0BC
:108D50008C8017F00100C0B2002809D05FEAC8502B
:108D600006D5012031680862F06F50F00100F0670D
:108D7000B8070BD519F00100C0B2002806D00220B8
:108D800031680862F06F50F00400F06778070BD587
:108D900019F00100C0B2002806D004203168086232
:108DA000F06F50F00200F06738070ED55FEA886078
:108DB00004D419F00100C0B2002806D008203168A0
:108DC0000862F06F50F00800F06738050AD55FEAD6
:108DD000481007D54FF4006031680862F06F50F01A
:108DE0002000F067F06F00283ED0B80608D55FEA93
:108DF000886005D5306E002802D03000316E88477B
:108E0000F06F050030688068400602D415F0280F26
:108E100025D0300000F09FFA3068806840061AD5EF
:108E20003068806830F0400031688860F06E00285B
:108E30000DD00FF24550F16E4863F06E00F012FB5A
:108E4000002811D0F06EF16E496B88470CE03000BD
:108E500000F034FB08E0300000F030FB04E03000AC
:108E600000F02CFB0020F06721E0F8020AD55FEA51
:108E7000492007D55FF4801031680862300000F0A7
:108E80001EFB14E0380609D55FEA086006D5706E4F
:108E9000002802D03000716E884708E0780606D5B9
:108EA0005FEA486003D5300000F074FAFFE7BDE8E0
:108EB000F1832DE9F047050000275FF00008A9685D
:108EC0002869014368690143E86901432868026829
:108ED0009D4802400A43286802602868426832F4CC
:108EE0004052E868024328684260D5F81890286A22
:108EF00050EA09092868806830F4306059EA0000B7
:108F00002A6890602868914A90421AD19048006877
:108F100010F00300002805D002280CD008D3032845
:108F200003D00BE05FF0010A53E05FF0020A50E06B
:108F30005FF0040A4DE05FF0080A4AE05FF0100AB3
:108F400047E02868834988421ED18148006810F4B0
:108F50004030002809D0B0F5803F0CD0B0F5003F7C
:108F60000CD0B0F5403F03D00BE05FF0000A30E0DA
:108F70005FF0020A2DE05FF0040A2AE05FF0080AC1
:108F800027E05FF0100A24E02868734988421ED168
:108F90006F48006810F44020002809D0B0F5802FF9
:108FA0000CD0B0F5002F0CD0B0F5402F03D00BE063
:108FB0005FF0000A0DE05FF0020A0AE05FF0040AC9
:108FC00007E05FF0080A04E05FF0100A01E05FF0DC
:108FD000100AE869B0F5004F5DD15046C0B20028D4
:108FE00008D0012813D002281ED0042826D0082833
:108FF00031D03AE0FFF72EFD04006868400810EB1E
:1090000044006968B0FBF1F080B207002FE0FFF781
:1090100031FD04006868400810EB44006968B0FB4B
:10902000F1F080B2070022E068684C4911EB500172
:109030006868B1FBF0F080B2070018E0FFF7CFFCE2
:1090400004006868400810EB44006968B0FBF1F068
:1090500080B207000BE06868400810F5803069684E
:10906000B0FBF1F080B2070001E001208046102F34
:109070000ED3B7F5803F0BD24FF6F0713940C7F3EE
:10908000420001430E00300080B22968C86053E0FE
:109090000120804650E05046C0B2002808D0012888
:1090A00012D002281CD0042824D008282ED037E063
:1090B000FFF7D0FC0400686814EB50006968B0FB4F
:1090C000F1F080B207002DE0FFF7D4FC04006868DF
:1090D00014EB50006968B0FBF1F080B2070021E0AA
:1090E00068681F4911EB50016868B1FBF0F080B26D
:1090F000070017E0FFF773FC0400686814EB5000EA
:109100006968B0FBF1F080B207000BE068684008C6
:1091100010F500406968B0FBF1F080B2070001E093
:1091200001208046102F05D3B7F5803F02D2286872
:10913000C76001E0012080460020286600206866A4
:109140004046C0B2BDE8F087F369FFFF0038014038
:109150003010024000440040004800400024F40069
:1091600000127A0090F82410C90707D501684A68F0
:1091700032F40032816A0A4301684A6090F8241090
:10918000890707D501684A6832F48032C16A0A4308
:1091900001684A6090F82410490707D501684A68B9
:1091A00032F48022016B0A4301684A6090F824106F
:1091B000090707D501684A6832F40042416B0A4347
:1091C00001684A6090F82410C90607D501688A68CA
:1091D00032F48052816B0A4301688A6090F824104F
:1091E000890607D501688A6832F40052C16B0A43C8
:1091F00001688A6090F82410490613D501684A680E
:1092000032F48012016C0A4301684A60016CB1F5C6
:10921000801F07D101684A6832F4C002416C0A43DA
:1092200001684A6090F82410090607D501684A6869
:1092300032F40022816C0A4301684A60704738B5F5
:1092400004000020E067FFF749FC05002068006883
:1092500000070DD57FF07E4000902B0000225FF4C8
:109260000011200000F01FF8002801D0032019E0B1
:109270002068006840070DD57FF07E4000902B00ED
:1092800000225FF48001200000F00DF8002801D0DA
:10929000032007E0202060672020A067002084F8DA
:1092A0007000002032BD2DE9F04105000E0090460F
:1092B0001F00069C2868C0693040B04201D10120DF
:1092C00000E000204146C9B2884241D114F1010FAB
:1092D000F0D0FFF703FCC01B844201D3002C14D153
:1092E0002868006830F4D0702968086028688068B1
:1092F0004008400029688860202068672020A8670F
:10930000002085F87000032023E0286800684007EB
:10931000D0D52868C0690005CCD54FF40060296815
:1093200008622868006830F4D070296808602868EE
:1093300080684008400029688860202068672020F5
:10934000A8672020E867002085F87000032000E06F
:109350000020BDE8F0810168096831F4907102686D
:1093600011600168896849084900026891602021FC
:10937000816700210166704738B50400656A0020E6
:10938000A5F85A000020A5F85200280000F096F831
:1093900031BD000010B504002068006830F04000C6
:1093A000216808602020606700206066200000F0CF
:1093B00087F810BD80B52748274901605FF4E13187
:1093C0004160002181600021C160002101610C2108
:1093D0004161002181610021C16100210162002100
:1093E0004162FFF753FC002801D000F012F901BDE3
:1093F00010B586B004001422002101A800F00AF97B
:1094000020681549884223D11448016851F48041ED
:109410000160006810F480400090009810480168D6
:1094200051F400310160006810F4003000900098A1
:109430004FF4C060019002200290002003900320AE
:1094400004900720059001A95FF0904000F0ECF82F
:1094500006B010BD0C00002000380140181002407A
:109460001410024038B50400002594F821000228A9
:1094700004D00420A063012005001CE020680068DF
:1094800030F00E0021680860206800684008400045
:10949000216808600121206C8140E06B416001205F
:1094A00084F82100002084F82000606B002802D09E
:1094B0002000616B88472800C0B232BD70477047FA
:1094C000704730B4002513E050F8042BD30744BF95
:1094D000A9F101039A18091F042942F8045BFAD282
:1094E00013468C0744BF15809B1CC90748BF1D70DD
:1094F00050F8041B0029E7D130BC704710B500F0CC
:10950000A5F900F029F800F0B3F900F01DFB00F018
:10951000D1FAFFF74FFF00F0F5FB00F03BFC00F045
:109520006EFA00F02FFA00F06AF84FF47A7000F04B
:10953000DDFC084C4FF40051200000F065F94FF4B9
:109540008041200000F060F94FF40041200000F05D
:109550005BF9EAE70008004880B59AB028220021AC
:1095600005A800F057F814220021684600F052F8D0
:109570002C2200210FA800F04DF8012005905FF487
:1095800080300690002107910121099102210C9160
:109590000D905FF4E0100E9005A8FEF7F5FD002891
:1095A00001D000F036F80F2000900220019000203A
:1095B00002904FF4806003900020049002216846DE
:1095C000FFF72BF9002801D000F023F840F6010046
:1095D0000F90002011905FF0284017900FA800F026
:1095E00099FC002801D000F014F84FF4007000F04E
:1095F0009DFD4FF4806000F099FD1BB000BD80B56B
:10960000002203212520FFF70FFB2520FFF721FB78
:1096100001BD704710B5044610460A460146204673
:1096200000F09AFD204610BDF8B50300002508683B
:10963000E840002800F0DB8001260F6816FA05F0EC
:1096400007403A00002A00F0D0804868022802D083
:10965000486812281ED12800C00803EB8000076A62
:109660005FF00F0C15F00700C0B280001CFA00FC80
:1096700037EA0C07D1F810C015F00700C0B280001F
:109680001CFA00FC5CEA07073C002800C00803EB5A
:10969000800004621F685FF0030C2800C0B2400025
:1096A0001CFA00F0874391F804E01EF0030E280036
:1096B000C0B240001EFA00FE5EEA07071F6048685D
:1096C000012808D04868022805D04868112802D02F
:1096D000486812281AD19C682800C0B240001CFAC1
:1096E00000F08443D1F80CE02800C0B240001EFA1C
:1096F00000FE5EEA04049C605868AE40B0434E68C9
:10970000C6F30016AE40304307005F60DC682800F7
:10971000C0B240001CFA00FC34EA0C048E68280039
:10972000C0B2400086403443DC604868C0005CD56D
:109730003C48066856F001060660006810F001001B
:1097400000900098384F2800800857F820605FF09C
:109750000F0C15F00300C0B280001CFA00FC36EAC2
:109760000C06B3F1904F01D1002414E02F4883423E
:1097700001D101240FE02E48834201D102240AE0E6
:109780002C48834201D1032405E02B48834201D1B8
:10979000042400E0052415F00300C0B280008440DA
:1097A00026432800800847F82060244C2068904316
:1097B0004F68FF0300D510432060214E3468944366
:1097C0004F68BF0300D5144334601E4E3068904389
:1097D0004F68FF0200D5104330601B4E346894433D
:1097E0004F68BF0200D5144334606D1C1FE7F1BD04
:1097F0001300DBB2002B03D00B009BB2836102E0AD
:109800000B009BB28362704742690B009BB21A4205
:1098100004D00A0092B21204826102E00A0092B2FD
:10982000826170471810024008000140000400489F
:1098300000080048000C00480010004800040140E7
:1098400004040140080401400C04014080B50748AD
:10985000016851F0100101600320FFF7DFF90020DB
:10986000FFF742F900F0C2FC002002BD00200240D8
:1098700010B586B0142200216846FFF7CBFE3C48A5
:10988000016851F400210160016811F40021059183
:109890000599016851F480010160016811F48001AB
:1098A00005910599016851F400310160016811F4D6
:1098B000003105910599016851F48021016001682A
:1098C00011F4802105910599016851F4001101609E
:1098D000016811F4001105910599016851F4801196
:1098E0000160006810F4801005900598214C00225A
:1098F0004FF460412000FFF77BFF4FF46040009081
:109900000120019000200290002003906946200071
:10991000FFF78AFE49F67F10009003200190002097
:10992000029069465FF09040FFF77EFE44F2FF2010
:109930000090032001900020029069460E48FFF736
:1099400073FE4FF48070009003200190002002907D
:1099500069460A48FFF768FEC02000900320019086
:109960000020029069460648FFF75EFE06B010BD73
:10997000141002400008004800040048000C004891
:109980000014004810B586B01022002102A8FFF78D
:1099900041FE082200216846FFF73CFEDFF838430D
:1099A0005FF08040206040F2CF2060600020A06027
:1099B0004CF24F30E060002020610020A0612000C8
:1099C00000F030FC002801D0FFF723FE4FF4805058
:1099D000029002A9200000F098FD002801D0FFF7B6
:1099E00018FE00200090002001906946200000F041
:1099F0003BFF002801D0FFF70CFE06B010BD18B5E4
:109A00008DB01022002109A8FFF704FE08220021D2
:109A10006846FFF7FFFD1C22002102A8FFF7FAFDB0
:109A2000AE4CAF48206040F2CF2060600020A060C4
:109A300041F28730E060002020610020A06120001A
:109A400000F0F0FB002801D0FFF7E3FD4FF4805059
:109A5000099009A9200000F058FD002801D0FFF767
:109A6000D8FD200000F0FAFB002801D0FFF7D1FD5F
:109A700000200090002001906946200000F0F4FED4
:109A8000002801D0FFF7C5FD602002900020039060
:109A90000220049000200690082202A9200000F075
:109AA000B4FC002801D0FFF7B4FD200000F0CFF88F
:109AB0000EB010BD18B58BB01022002107A8FFF71B
:109AC000A9FD1C2200216846FFF7A4FD854C8648AD
:109AD000206040F2CF2060600020A06041F287301B
:109AE000E060002020610020A061200000F09AFBCF
:109AF000002801D0FFF78DFD4FF48050079007A993
:109B0000200000F002FD002801D0FFF782FD2000B8
:109B100000F0A4FB002801D0FFF77BFD602000903F
:109B20000020019002200290002004900422694647
:109B3000200000F06AFC002801D0FFF76AFD200039
:109B400000F085F80CB010BD10B586B010220021D1
:109B500002A8FFF75FFD082200216846FFF75AFDC3
:109B6000624C6348206040F2CF2060600020A0601B
:109B700040F2E730E06000202061002060610020BA
:109B8000A061200000F04EFB002801D0FFF741FD4E
:109B90004FF48050029002A9200000F0B6FC00288B
:109BA00001D0FFF736FD00200090002001906946AB
:109BB000200000F059FE002801D0FFF72AFD06B072
:109BC00010BD1CB504002068B0F1804F12D1494887
:109BD000016851F001010160006810F0010000907F
:109BE0000098002200211C20FFF71EF81C20FFF720
:109BF00030F82BE020683A4988420AD13D48016894
:109C000051F004010160006810F004000090009819
:109C10001CE02068344988420AD13648016851F076
:109C200040010160006810F04000009000980DE0D5
:109C300020682F49884209D12F48016851F48031AA
:109C40000160006810F480300090009813BD10B5DA
:109C500086B00400142200216846FFF7DBFC206870
:109C60001F49884219D12548016851F480210160BB
:109C7000006810F48020059005984FF480700090E3
:109C80000220019000200290002003900220049006
:109C900069461B48FFF7C8FC1CE02068124988424F
:109CA00018D11648016851F480210160006810F451
:109CB0008020059005984FF400400090022001900C
:109CC00000200290002003900920049069460C486F
:109CD000FFF7AAFC06B010BD1401002054010020BB
:109CE000000800409401002000180040D40100202A
:109CF000004001401C1002401810024014100240A5
:109D00000004004838B584B0102200216846FFF7EF
:109D100081FC6D4C6D482060002060600020A060D8
:109D20000020E06000202061200000F0EDFD002810
:109D300001D0FFF76EFC0021200000F0D5FE0028C6
:109D400001D0FFF766FC5FF080600090002001907A
:109D500000200290002003906A460021200000F0BD
:109D60002DFE002801D0FFF754FC594D0022290098
:109D7000200000F050FE002801D0FFF74AFC01222D
:109D80002900200000F085FE002801D0FFF741FCEB
:109D900005B030BD38B584B0102200216846FFF709
:109DA00039FC4C4C4C482060002060600020A060D2
:109DB0000020E06000202061200000F0A5FD0028C8
:109DC00001D0FFF726FC0021200000F08DFE0028C6
:109DD00001D0FFF71EFC5FF0806000900020019032
:109DE00000200290002003906A460021200000F02D
:109DF000E5FD002801D0FFF70CFC384D00222900BA
:109E0000200000F008FE002801D0FFF702FC01222C
:109E10002900200000F03DFE002801D0FFF7F9FBEB
:109E200005B030BD10B586B004001422002101A891
:109E3000FFF7F0FB2068254988421FD128480168B8
:109E400051F080710160006810F0807000900098FF
:109E50002448016851F400110160006810F40010FA
:109E6000009000984FF400700190032002900020B1
:109E7000039001A91C48FFF7D7FB22E02068164990
:109E800088421ED11648016851F0007101600068D7
:109E900010F00070009000981248016851F4001111
:109EA0000160006810F40010009000984FF480707A
:109EB0000190032002900020039001A90A48FFF7B7
:109EC000B3FB06B010BD00008C0000200060014014
:109ED00080000700D000002000640140000108005D
:109EE00018100240141002400010004870B5040021
:109EF000FEF7F4FD0500260016F1010F02D004481C
:109F000000783618FEF7EAFD401BB042FAD370BD68
:109F1000080000202DE9F8430500002600242868E9
:109F2000C00340F18F800027DFF8E481D8F80000FB
:109F3000C0000DD4D8F8000050F08050C8F80000E0
:109F4000D8F8000010F08050009000980120070021
:109F5000DFF8C091D9F80000C00513D4D9F800008B
:109F600050F48070C9F80000FEF7B8FD0600D9F87B
:109F70000000C00506D4FEF7B1FD801B6528F6D3AE
:109F80000320C3E0DFF89091D9F8000010F440708E
:109F90000400002C44D0686810F4407084423FD024
:109FA000D9F8000030F440700400DFF870014FF47D
:109FB00000410122B1FA81F310EB83031A60002201
:109FC000B1FA81F110EB81000260C9F80040E007AE
:109FD00026D5FEF783FD06005FF08040B0FA80F1E1
:109FE000B0FA80F151F04001C9B24909022902D109
:109FF000D9F8001004E0B0FA80F1DFF82411096804
:10A00000B0FA80F010F01F00C140C80708D4FEF776
:10A0100065FD801B41F289318842DDD3032075E064
:10A02000D9F8001031F4407168680143C9F8001094
:10A030003800C0B2012805D1D8F8000030F08050B7
:10A04000C8F800002878C00707D5DFF8D8100A68DC
:10A0500092089200A86802430A602878800707D512
:10A06000DFF8C0100A6832F44032E86802430A6040
:10A070002878400707D5DFF8AC100A6832F4402290
:10A08000286902430A602878800607D5DFF8941013
:10A090000A6832F01002686902430A602868800387
:10A0A00007D5DFF884100A6832F48002A86A0243F8
:10A0B0000A602878400607D5DFF868100A6832F091
:10A0C0002002A86902430A602878000607D5DFF855
:10A0D00058100A6832F44042E86902430A6028686E
:10A0E000000507D5DFF840100A6822F07842286A98
:10A0F00002430A602868400507D5DFF828100A687F
:10A1000032F04002686A02430A600020BDE8F28330
:10A110001C10024000700040201002400004424227
:10A1200024100240301002400410024081B009495E
:10A130000A6852F080520A60096811F0805100915B
:10A14000009903490A6802430A6001B070470000A1
:10A15000007000401C10024062F30F2262F31F42A5
:10A16000401810F0030308D0C91A1FD3DB0748BFFB
:10A1700000F8012D28BF20F8022D130030B414463A
:10A180001546103928BF20E93C00FAD8490728BFF6
:10A1900020E90C0048BF40F8042D890028BF20F8B2
:10A1A000022D48BF00F8012D30BC7047C91818BFF8
:10A1B00000F8012DCB0728BF00F8012D704730B4FF
:10A1C0000EE00268436802440830DC0744BFA9F18E
:10A1D0000104E31852F8045B43F8045B091FF9D14A
:10A1E00050F8041B0029ECD130BC704781B00B48FB
:10A1F000016851F001010160006810F00100009059
:10A2000000980748016851F080510160006810F023
:10A2100080500090009801B0704700BF18100240B5
:10A220001C10024010B50400002C01D1012014E0E4
:10A2300094F83D00002805D1002084F83C0020005F
:10A24000FFF7BFFC022084F83D00211D206800F0CC
:10A25000D2F9012084F83D00002010BD10B50400A3
:10A26000002C01D1012014E094F83D00002805D114
:10A27000002084F83C00200000F079FC022084F8E3
:10A280003D00211D206800F0B6F9012084F83D0052
:10A29000002010BD10B504002068006980071AD5A1
:10A2A0002068C068800716D57FF002002168086129
:10A2B000012020772068806910F0030F03D0200070
:10A2C00000F056FC05E0200000F053FC200000F0F8
:10A2D00051FC002020772068006940071AD52068CB
:10A2E000C068400716D57FF004002168086102208D
:10A2F00020772068806910F4407F03D0200000F0B0
:10A3000037FC05E0200000F034FC200000F032FCB7
:10A31000002020772068006900071AD52068C068EF
:10A32000000716D57FF00800216808610420207717
:10A330002068C06910F0030F03D0200000F018FC63
:10A3400005E0200000F015FC200000F013FC0020C8
:10A35000207720680069C0061AD52068C068C0064A
:10A3600016D57FF01000216808610820207720684A
:10A37000C06910F4407F03D0200000F0F9FB05E035
:10A38000200000F0F6FB200000F0F4FB0020207716
:10A3900020680069C0070AD52068C068C00706D5D4
:10A3A0007FF0010021680861200000F0E4FB2068D4
:10A3B000006900060AD52068C068000606D57FF04F
:10A3C000800021680861200000F0D6FB2068006949
:10A3D00040060AD52068C068400606D57FF04000D8
:10A3E00021680861200000F0C8FB20680069800631
:10A3F0000AD52068C068800606D57FF02000216855
:10A400000861200000F0BAFB10BD70B504000D001B
:10A41000160094F83C00012801D1022074E00120CC
:10A4200084F83C00022084F83D003000002806D06B
:10A4300004281BD0082831D00C2846D05DE0290024
:10A44000206800F02AF92068806950F0080021682F
:10A4500088612068806930F0040021688861206884
:10A460008169286901432068816146E029002068EC
:10A4700000F04BF92068806950F400602168886121
:10A480002068806930F48060216888612068806974
:10A49000296950EA0120216888612EE0290020689E
:10A4A00000F05FF92068C06950F008002168C861B9
:10A4B0002068C06930F004002168C8612068C16963
:10A4C000286901432068C16117E02900206800F075
:10A4D00062F92068C06950F400602168C861206892
:10A4E000C06930F480602168C8612068C06929694A
:10A4F00050EA01202168C861FFE7012084F83D008F
:10A50000002084F83C00002070BD70B504000D00F0
:10A5100094F83C00012801D102206BE0012084F86E
:10A520003C00022084F83D002068866836F07706FB
:10A5300036F47F4620688660286800284ED01028B0
:10A540004CD020284AD0302848D040283CD0502831
:10A5500026D060282ED0702807D0B0F5805F03D0B9
:10A56000B0F5005F0FD03EE03DE0EB686A68A96897
:10A57000206800F06CF92068806850F077000600D1
:10A58000206886602FE0EB686A68A968206800F0A0
:10A590005EF92068806850F480402168886022E07D
:10A5A000EA686968206800F025F95021206800F009
:10A5B00046F918E0EA686968206800F02DF9602122
:10A5C000206800F03CF90EE0EA686968206800F055
:10A5D00011F94021206800F032F904E02968206870
:10A5E00000F02DF9FFE7012084F83D00002084F8F9
:10A5F0003C00002070BD0368B0F1804F0DD0DFF843
:10A60000CC21904209D0DFF8C821904205D0714A90
:10A61000904202D0704A904203D133F070034A68EE
:10A620001343B0F1804F1DD0684A90421AD0684A57
:10A63000904217D0674A904214D0684A904211D095
:10A64000674A90420ED0674A90420BD0664A9042C9
:10A6500008D0664A904205D0654A904202D05E4AD0
:10A66000904203D133F44073CA68134333F080033C
:10A670004A69134303608A68C2620A6882625A4A5E
:10A68000904205D0594A904202D0594A904201D195
:10A690000A69026301224261704770B4026A52087B
:10A6A00052000262056A4368846934F07004A408A9
:10A6B000A4000A68144335F002058A6815434A4E1F
:10A6C000B04205D0494A904202D0494A904205D151
:10A6D00035F00805CA68154335F00405B04205D0C9
:10A6E000424A904202D0424A904207D133F48073EA
:10A6F00033F400734A6913438A69134343608461E6
:10A700004A684263056270BC704730B4026A32F036
:10A7100010020262036A4468826932F4E04232F451
:10A7200040720D6852EA052233F020038D6853EA27
:10A7300005132D4DA84205D02C4DA84202D02C4D1A
:10A74000A84207D134F480644D6954EA85048D69C8
:10A7500054EA8504446082614D688563036230BCBD
:10A76000704730B4026A32F480720262046A45684B
:10A77000C36933F070039B089B000A68134334F4E9
:10A7800000748A6854EA02244560C3614A68C2635F
:10A79000046230BC704730B4026A32F48052026204
:10A7A000036A4468C26932F4E04232F440720D68D0
:10A7B00052EA052233F400538D6853EA05334460AE
:10A7C000C2614D680564036230BC704700040040FC
:10A7D00000080040000C0040005C014000180040F0
:10A7E000001C0040002000400040014000440140A7
:10A7F0000048014010B4046A036A5B085B0003620E
:10A80000836933F0F00353EA021334F00A040C4373
:10A810008361046210BC704710B4036A33F0100304
:10A8200003628369046A33F4704353EA023334F0F9
:10A83000A00454EA01148361046210BC7047836869
:10A8400033F0700351F0070213438360704730B454
:10A85000846834F47F4452EA010555EA03252C4309
:10A86000846030BC7047000030B4020092F83C00B5
:10A87000012801D1022038E0012082F83C000220AA
:10A8800082F83D00106843681068846833F07003F4
:10A8900008680343106843601068B0F1804F17D018
:10A8A0001068134DA84213D01068124DA8420FD063
:10A8B0001068114DA8420BD01068104DA84207D067
:10A8C00010680F4DA84203D010680E4DA84205D164
:10A8D00034F080044868044310688460012082F8E2
:10A8E0003D00002082F83C00002030BC7047000092
:10A8F0000004004000080040000C00400018004028
:10A9000000400140005C014010B50400002C01D162
:10A91000012052E00020A0610020E06101202062BF
:10A92000012060620020A0620020E0624FF400502D
:10A930002063002060630020A063002020642000CA
:10A94000FFF770FA2068006830F4E0502168086072
:10A95000206801686268E068024311432068016072
:10A960002068406830F08070216848602068416845
:10A97000A068014320684160DFF8AC11086810F45A
:10A980004070226990420AD0086830F44070086034
:10A990000A68206902430A600220FFF7A7FA2068CC
:10A9A000406850F001002168486020688068000419
:10A9B000FBD4012084F83C00002010BD2DE9F041BB
:10A9C00005000E0017005FF0000895F83C00012814
:10A9D00002D0012080461AE0280000F0A9F80028E3
:10A9E00005D0FF2085F83C00032080460FE0286852
:10A9F00010EB860020300400396878680143B8689D
:10AA00000143F86801432160280000F0A9F840469E
:10AA1000C0B2BDE8F0812DE9F04105000E0017003D
:10AA20005FF0000895F83C00012802D00120804624
:10AA30002BE0280000F07CF8002805D0FF2085F8E6
:10AA40003C000320804620E0DFF8E000864217D07B
:10AA50003000000C04002868006C0321A20012F0F2
:10AA60001F0291408843296808642868006CA1008F
:10AA700011F01F0117FA01F108432968086401E089
:10AA800028684764280000F06BF84046C0B2BDE873
:10AA9000F08130B40400002094F83C30002B1ED02C
:10AAA00094F83C30FF2B1AD023685B6833F49E0384
:10AAB00025686B60012A09D123685B680D0C2D04A1
:10AAC00055F480052B4325686B6006E023685D68BC
:10AAD0000B0C1B041D4323685D60A26101E0012390
:10AAE0001800C0B230BC704710B4020000201368D8
:10AAF000DFF83440A34204D1012902D10123180018
:10AB00000FE092F83C30012B07D092F83C30022B3A
:10AB100003D092F83C30042B01D1916201E0012373
:10AB20001800C0B210BC704700600140000108006E
:10AB300038B504002068006850F0004021680860C3
:10AB4000FDF7CCFF050020688068002806D4FDF7DB
:10AB5000C5FF401BC928F6D3032000E0002032BD0A
:10AB60000168096821F00041026811607047704770
:10AB700070477047704770477047704770470000D4
:10AB80007047FEE7FEE7FEE7FEE770477047704755
:10AB900080B500F00FF801BD80B50448FFF77AFBDF
:10ABA00001BD80B50248FEF7AEF801BD14010020DA
:10ABB0000C00002003480168034A127889180160DC
:10ABC000704700BF140200200800002010B507499C
:10ABD00079441831064C7C44163404E00A68081D98
:10ABE000114488470146A142F8D110BD2C00000055
:10ABF0004C0000004EF68851CEF20001086840F487
:10AC000070000860BFF34F8FBFF36F8F4FF000707D
:10AC1000E1EE100A70470000ABE8FFFF0C020000F5
:10AC20000C0000200000000097F5FFFF0C00000062
:10AC3000C00000000000002000000000044801687F
:10AC400051F4700101600348034908607047000037
:10AC500088ED00E00080000808ED00E000F00DF84D
:10AC6000002801D0FFF7B2FFAFF300800020AFF360
:10AC70000080FEF743FC00F002F80120704700F06E
:10AC800001B800000746384600F002F8FBE7000074
:10AC900080B5AFF30080024A11001820ABBEFBE77D
:10ACA0002600020002030405060708090A0B0C0D22
:10ACB0000E0F10100102030405060708090A0B0C09
:10ACC0000D0E0F1000000000000000000102030440
:10ACD0000607080901488047014800473DAC0008C5
:10ACE000E5AC0008AFF30080FFF784FFFFF7B6FF85
:10ACF0001000000000127A000100000000000000B7
:10AD000001020304FFF7FEBFFFF7FEBFFFF7FEBF20
:10AD1000FFF7FEBFFFF7FEBFFFF7FEBFFFF7FEBF67
:10AD2000FFF7FEBFFFF7FEBFFFF7FEBFFFF7FEBF57
:10AD3000FFF7FEBFFFF7FEBFFFF7FEBFFFF7FEBF47
:10AD4000FFF7FEBFFFF7FEBFFFF7FEBFFFF7FEBF37
:10AD5000FFF7FEBFFFF7FEBFFFF7FEBFFFF7FEBF27
:10AD6000FFF7FEBFFFF7FEBFFFF7FEBFFFF7FEBF17
:10AD7000FFF7FEBFFFF7FEBFFFF7FEBFFFF7FEBF07
:10AD8000FFF7FEBFFFF7FEBFFFF7FEBFFFF7FEBFF7
:10AD9000FFF7FEBFFFF7FEBFFFF7FEBFFFF7FEBFE7
:10ADA000FFF7FEBFFFF7FEBFFFF7FEBFFFF7FEBFD7
:10ADB000FFF7FEBFFFF7FEBFFFF7FEBFFFF7FEBFC7
:10ADC000FFF7FEBFFFF7FEBFFFF7FEBFFFF7FEBFB7
:10ADD000FFF7FEBFFFF7FEBFFFF7FEBFFFF7FEBFA7
:10ADE000FFF7FEBFFFF7FEBFFFF7FEBFFFF7FEBF97
:0CADF000FFF7FEBFFFF7FEBFFFF7FEBF3E
:040000050800ACE55E
:00000001FF
