:020000040800F2
:1000000060050020AD340008A9330008AB330008B8
:10001000AD330008AF330008B13300080000000022
:10002000000000000000000000000000B3330008E2
:10003000B533000800000000B7330008B9330008EA
:10004000D5340008D9340008DD340008E134000854
:10005000E5340008E9340008ED340008F134000804
:10006000F5340008F9340008FD34000801350008B3
:1000700005350008093500080D3500081135000860
:1000800015350008193500081D3500082135000810
:1000900025350008293500082D35000831350008C0
:1000A00035350008393500083D3500084135000870
:1000B00045350008493500084D3500085135000820
:1000C00055350008593500085D35000861350008D0
:1000D00065350008C1330008693500086D35000832
:1000E0007135000875350008793500087D35000840
:1000F0008135000885350008893500088D350008F0
:100100009135000895350008993500089D3500089F
:10011000A1350008A5350008A9350008AD3500084F
:10012000B1350008B5350008B9350008BD350008FF
:10013000C13500080000000000000000C5350008BF
:10014000C9350008CD350008D1350008D53500087F
:10015000D9350008DD350008E1350008E53500082F
:10016000E9350008ED350008F1350008F5350008DF
:10017000F9350008FD3500080136000800000000D0
:10018000000000000536000800000000000000002C
:100190000936000800000000000000000D360008CD
:1001A0000000000000000000000000001136000800
:1001B00015360008193600081D36000821360008DB
:1001C0002536000810B50400002C01D10120A1E063
:1001D000A06900282FD02068DFF83C11884214D095
:1001E0002068DFF8381188420FD02068DFF830111E
:1001F00088420AD02068DFF82C11884205D040F2EE
:100200004911DFF8240100F0EEFCA069002836D087
:10021000A069B0F5807F32D0A069B0F5007F2ED004
:10022000A069B0F5407F2AD04FF4A571DFF8F8003F
:1002300000F0D9FC23E02068DFF8DC1088421ED0F3
:100240002068DFF8D810884219D02068DFF8D01075
:10025000884214D02068DFF8D41088420FD020687C
:10026000DFF8CC1088420AD02068DFF8B810884246
:1002700005D04FF4A771DFF8B00000F0B4FCA0681F
:10028000002809D0A068B0F5805F05D04FF4A871B0
:10029000DFF8940000F0A7FCE069002809D0E069CD
:1002A000B0F5004F05D040F25111DFF87C0000F0AE
:1002B0009AFC94F83900002805D1002084F8380011
:1002C000200000F0ABFC242084F839002068C068CE
:1002D00030F400502168C860200000F06BFA2068FC
:1002E000006930F49040216808612068406930F06E
:1002F0002A00216848612068C06850F400502168D5
:10030000C8600020E063202084F83900202084F8B1
:100310003A00002010BD00000010014000440040E1
:100320000048004000140140A4320008004C004086
:10033000005000402DE9FC4705000C0016001F008E
:100340005FF0000A95F83900202860D1002C03D016
:10035000300080B2002801D1012059E095F8380022
:10036000012801D1022053E0012085F83800002047
:10037000E863212085F8390000F098FC8146AE84BE
:10038000EE84E88C00282FD0E88C401EE884A86812
:10039000B0F5805F18D100974B46002280212800DD
:1003A00000F016F9002801D0032031E0A046B8F88B
:1003B0000000C005C00D296848602869002801D1E7
:1003C000A41CDEE7641CDCE700974B46002280217A
:1003D000280000F0FDF8002801D0032018E0207864
:1003E00029684860641CCCE700974B4600224021F6
:1003F000280000F0EDF8002801D0032008E02020BC
:1004000085F83900002085F83800002000E002203F
:10041000BDE8F68710B4030093F83A0020282FD1E6
:10042000002903D0100080B2002801D1012028E06B
:1004300093F83800012801D1022022E0012083F83E
:10044000380099629A85DA850020D863222083F8E3
:100450003A00002083F838001868C06850F48070B3
:100460001C68E0601868406950F001001C68606119
:100470001868C06850F020001C68E060002000E0B0
:10048000022010BC70472DE9F84306003068076869
:100490003068D0F80C803068D0F814900020002527
:1004A00017F00F04002C08D1B80606D55FEA886063
:1004B00003D5300000F027F988E0002C74D05FEA03
:1004C000C97002D418F4907F6ED017F00100C0B24A
:1004D000002806D05FEAC85003D5F06B50F0010049
:1004E000F063780708D519F00100C0B2002803D0E6
:1004F000F06B50F00200F063B80708D519F0010066
:10050000C0B2002803D0F06B50F00400F06338074D
:1005100008D519F00100C0B2002803D0F06B50F0EC
:100520000800F063F06B00283DD0B80605D55FEAFF
:10053000886002D5300000F0E6F830684069800934
:1005400010F001000500F06B000701D4002D25D04C
:10055000300000F074F83068406940061AD5306801
:10056000406930F0400031684861706B00280DD060
:100570000FF2ED00716B0865706B00F09DFB0028B9
:1005800011D0706B716B096D88470CE0300000F082
:10059000A7FB08E0300000F0A3FB04E0300000F00F
:1005A0009FFB0020F06311E0380606D55FEA086083
:1005B00003D5300000F060F808E0780606D55FEA61
:1005C000486003D5300000F08EF8FFE7BDE8F18306
:1005D0002DE9F04105000E0090461F00069C28689A
:1005E00000683040B04201D1012000E000204146C7
:1005F000C9B2884220D114F1010FF0D0002C04D0F0
:1006000000F054FBC01B8442E9D22868C06830F473
:10061000D0702968C860286840694008400029688F
:100620004861202085F83900202085F83A00002014
:1006300085F83800032000E00020BDE8F081016863
:10064000C96831F490710268D1600168496949084C
:10065000490002685161202180F83A10704700007B
:1006600038B50400A56B0020E8850020E884280048
:1006700000F036FB31BD0000010091F8390021285F
:100680002FD18868B0F5805F11D1086A0200108808
:10069000C005C00D0B6858600869002803D1086ABE
:1006A000801C086209E0086A401C086205E0086ACC
:1006B000431C0B6200780B685860C88C401EC884CD
:1006C00080B200280BD10868C06830F080000B6849
:1006D000D8600868C06850F040000B68D8600020FF
:1006E00000E00220704710B504002068C06830F0B8
:1006F00040002168C860202084F83900200000F004
:10070000F0FA002010BD38B5040094F83A00222811
:100710004ED1A068B0F5805F16D1A06A05002069AF
:10072000002808D120684068C005C00D2880A06A54
:10073000801CA0621AE02068406800F0FF0028805A
:10074000A06A401CA06211E02069002806D1A06ABE
:10075000411CA16221684968017007E0A06A411C40
:10076000A1622168496811F07F010170E08D401E8F
:10077000E08580B2002819D12068C06830F02000E0
:100780002168C8602068C06830F480702168C86043
:10079000206840694008400021684861202084F8B2
:1007A0003A00200000F03EFC002002E0002000E0C3
:1007B000022032BD2DE9F84304006068D249884226
:1007C00004D340F6E531CF4800F00DFAE068002888
:1007D00008D0E068B0F5005F04D040F6E631C948C3
:1007E00000F001FA206900280CD02069B0F5806F74
:1007F00008D02069B0F5C06F04D040F6E731C14899
:1008000000F0F1F960694FF6F371084202D16069B6
:10081000002804D140F6E831BA4800F0E4F9206835
:10082000016931F44051E068014320680161A56825
:100830002069054360690543E06905432068C16894
:10084000B248014029432068C1602068416931F401
:100850004071A069014320684161E069B0F5004F33
:1008600040F0A6802068A549884203D02068A449AA
:1008700088424ED100F08FFF060000F08CFF070089
:1008800000F089FF804600F086FF814600F083FF7C
:1008900064211922564363685B00B6FBF3F36426B8
:1008A000B3FBF6F3574366687600B7FBF6F602FB38
:1008B00008F867687F00B8FBF7F75FF0640CB7FBD8
:1008C000FCF701FB1766F60032366427B6FBF7F635
:1008D000760016F4F87616EB031602FB09F9636846
:1008E0005B00B9FBF3F302FB00F260684000B2FB6F
:1008F000F0F06422B0FBF2F001FB1031C80032309E
:100900006421B0FBF1F010F00700861920688660C2
:10091000F1E000F035FF060000F032FF070000F0C4
:100920002FFF804600F02CFF814600F029FF642154
:100930001922564363685B00B6FBF3F36426B3FBEE
:10094000F6F3574366687600B7FBF6F602FB08F845
:1009500067687F00B8FBF7F75FF0640CB7FBFCF744
:1009600001FB1766F60032366427B6FBF7F6760011
:1009700016F4F87616EB031602FB09F963685B00C0
:10098000B9FBF3F302FB00F260684000B2FBF0F049
:100990006422B0FBF2F001FB1031C8003230642158
:1009A000B0FBF1F010F00700861920688660A2E025
:1009B00020685249884203D02068514988424DD16D
:1009C00000F0E9FE060000F0E6FE070000F0E3FE9E
:1009D000804600F0E0FE814600F0DDFE6421192231
:1009E000564363689B00B6FBF3F36426B3FBF6F350
:1009F00057436668B600B7FBF6F602FB08F867686F
:100A0000BF00B8FBF7F75FF0640CB7FBFCF701FB26
:100A10001766360132366427B6FBF7F616F0F00695
:100A200016EB031602FB09F963689B00B9FBF3F3AD
:100A300002FB00F260688000B2FBF0F06422B0FBC1
:100A4000F2F001FB1031080132306421B0FBF1F00B
:100A500010F00F008619206886604CE000F090FED0
:100A6000060000F08DFE070000F08AFE804600F0D0
:100A700087FE814600F084FE642119225643636894
:100A80009B00B6FBF3F36426B3FBF6F357436668AB
:100A9000B600B7FBF6F602FB08F86768BF00B8FBC4
:100AA000F7F75FF0640CB7FBFCF701FB1766360144
:100AB00032366427B6FBF7F616F0F00616EB03168F
:100AC00002FB09F963689B00B9FBF3F302FB00F238
:100AD00060688000B2FBF0F06422B0FBF2F001FB32
:100AE0001031080132306421B0FBF1F010F00F003A
:100AF000861920688660BDE8F1830000001001407F
:100B000000140140A4320008A137A000F369FFFFE0
:100B100080B500F059FE00F007F800F06FFE00F01D
:100B200063F800F0C6FAFCE718B593B03421002250
:100B300006AC200000F0F8FE1421002201AC2000D9
:100B400000F0F2FE002000902448016851F080512E
:100B50000160006810F08050009000980020009024
:100B60001F48016831F4404151F480410160006840
:100B700010F4404000900098022006900120099057
:100B800010200A9002200C9000200D9010200E9052
:100B90004FF4A8700F9004201090022011900220B2
:100BA000129006A800F090FF002801D000F01AF87B
:100BB0000F20019002200290002003904FF48050FB
:100BC000049000200590022101A800F09FFC00285D
:100BD00001D000F007F814B010BD0000403802400A
:100BE000007000407047704780B52B482B4901606A
:100BF0005FF4E1314160002181600021C16000218A
:100C000001610C214161002181610021C161FFF777
:100C1000D9FA002801D0FFF7E5FF01BD10B586B075
:100C200004001422002101A801F0D8F920681B4912
:100C300088422ED1002000901948016851F010011F
:100C40000160006810F010000090009800200090F3
:100C50001448016851F001010160006810F00100C2
:100C6000009000984FF4C060019002200290012093
:100C70000390032004900720059001A90A4801F081
:100C8000B7F900220021252001F0E9FC252001F020
:100C900009FD06B010BD0000D0000020001001408A
:100CA00044380240303802400000024001480068E9
:100CB000704700BF58010020010091F8350002285C
:100CC00003D080204865012009E0052081F8350027
:100CD00008680068400840000A68106000207047FB
:100CE00070477047BFF34F8FDFF8C8170A6812F4D8
:100CF000E062DFF8C40702430A60BFF34F8F00BF12
:100D0000FDE780B50122DFF8B417DFF8B407FFF77D
:100D100081FB002804D10120DFF8A817087003E048
:100D20000020DFF8A017087001BD01000120704706
:100D30000FB42DE9F84F84B000275FF000080120C0
:100D40008DF800000FAE380040B29DF8381000B2A8
:100D500009B2884280F22581380040B2022190FB1E
:100D6000F1F201FB1200002804D13068361D8DF825
:100D7000000014E19DF8000001280CD0C0F00F81A4
:100D8000032829D012D3052800F0918048D30628E3
:100D900000F0B78003E13068361DDFF82C170968D2
:100DA000424652B2885418F10108F8E03068361D06
:100DB000C11704000D00DFF81007210089B2090AED
:100DC000026843465BB2D1540068414649B20844C8
:100DD000447018F10208E2E03068361DC1170400C3
:100DE0000D00DFF8E4062100090E026843465BB2FD
:100DF000D1542100090C026843465BB21A44517079
:100E0000210089B2090A026843465BB21A44917014
:100E10000068414649B20844C47018F10408BEE0B5
:100E2000F61D36F00706D6E90001083604000D006D
:100E3000DFF8942620002900080E0021116843469F
:100E40005BB2C85420002900080C002111684346F9
:100E50005BB21944487020002900080A002111687B
:100E600043465BB2194488701068414649B2084451
:100E7000C5702000000E116843465BB2194408712A
:100E80002000000C116843465BB2194448712000F1
:100E900080B2000A116843465BB219448871106839
:100EA000414649B20844C47118F1080877E0F61DBC
:100EB00036F0070696ED000B083651EC100B01F0EA
:100EC00019FC0190DFF800060199090E02684346FB
:100ED0005BB2D1540199090C026843465BB21A44D3
:100EE00051700199090A026843465BB21A44917035
:100EF00001990068424652B21044C17018F10408CA
:100F00004DE0F61D36F0070696ED000B08368DED28
:100F1000020BDFF8B425DDE90201080E002111689B
:100F200043465BB2C854DDE90201080C0021116898
:100F300043465BB219444870DDE90201080A00210A
:100F4000116843465BB219448870DDE902011068FC
:100F500043465BB21844C170DDE90201000E11681E
:100F600043465BB219440871DDE90201000C1168C7
:100F700043465BB219444871DDE9020180B2000AC0
:100F8000116843465BB219448871DDE902011168BA
:100F9000424652B21144C87118F10808FFE77F1C9D
:100FA000D1E6DFF824950020D9F80010424652B26D
:100FB00088540020D9F80010424652B211444870BB
:100FC00018F102080D20D9F80010424652B2885498
:100FD0000A20D9F80010424652B21144487018F164
:100FE00002088DF801804FF480539DF90120921C76
:100FF00092B2DFF8D814DFF8C804FFF79BF98046F7
:101000009DF901A05FF0000BD9F800905A465146B7
:10101000484600F089FC4046C0B205B0BDE8F00F7C
:101020005DF814FB38B50400DFF8A404017800294A
:1010300005D0022916D00AD3032936D036E0DFF8CE
:101040007C140978A52901D1012101702EE0DFF877
:101050006C1409785A2902D10221017001E00021A3
:10106000017023E0DFF86C14DFF86C24DFF84C34F7
:101070001B780D7853550B785B1C0B700B78022B8B
:1010800009DB0B785578AD1CAB4204DB0322027000
:101090000020087008E00B78402B05DB002353701C
:1010A000002202700020087000E0FFE7FFF729FE31
:1010B00031BD2DE9F84F86B000250126DFF8100478
:1010C0000078032840F0ED81DFF8108420214046AD
:1010D00001F0EFF9DFF8009499F801A01AF1020A83
:1010E000CDF80090DFF8F873BB4652460099584699
:1010F00001F034FB002089F80100DFF8D4930020D0
:1011000089F800003800FFF710FE002800F0C681C3
:10111000387850F0800004003878002817D0702804
:1011200023D0712861D0722800F08B80732800F0E2
:1011300038817A2827D07B2800F07E817D2800F036
:1011400040817E2831D07F2800F06481A6E1012013
:101150000290012001900120009001232200D2B2D0
:1011600001210620FFF7E4FD98E1A520029001206F
:1011700001900120009001232200D2B2012106201B
:10118000FFF7D6FD8AE1D748049003200390D648A4
:101190000290032001900820009001232200D2B287
:1011A00001210820FFF7C4FD78E101F07FFB060074
:1011B000C0B200280AD1CD4800210160022181601F
:1011C0000621C160CA4901F091FC06003000C0B29E
:1011D0000290012001900120009001232200D2B250
:1011E00001210620FFF7A4FD58E1C24978793A7938
:1011F000120452EA0062F87852EA0022B8780243F8
:101200000A60B87908710868B74A904205D308683F
:1012100009794018B849884202D30120060001E04C
:10122000002006003000C0B2029001200190012091
:10123000009001232200D2B201210620FFF778FDA1
:101240002CE10020050078788DF81400DFF8A482E6
:101250009DF8140098F8041088420CD001200290E8
:10126000012001900120009001232200D2B201212F
:101270000620FFF75DFD9DF814102800C0B2091A82
:10128000042924DB2800C0B2384441792800C0B2C8
:1012900038440079000450EA01602900C9B2394499
:1012A000C97850EA01202900C9B239448978084335
:1012B0000021C8E90201D8E90223D8F8000050FA59
:1012C00085F1022001F09EFA06002D1D3DE09DF8FB
:1012D00014102800C0B2091A022918DB2800C0B275
:1012E0003844C1782800C0B23844807850EA0120E0
:1012F0000021C8E90201D8E90223D8F8000050FA19
:1013000085F1012001F07EFA0600AD1C1DE09DF87C
:1013100014102800C0B2091A012916D1B87800218A
:10132000C8E90201D8E9020150F47F4051F0000100
:10133000C8E90201D8E90223D8F8000050FA85F183
:10134000012001F05FFA06006D1C28009DF81410C2
:10135000C0B2884203D23000C0B200288BD0300027
:10136000C0B2002801D001F0B2FA3000C0B20028AB
:1013700004D1D8F8000050FA85F001E0D8F8000058
:10138000C8F800003000C0B2029001200190012096
:10139000009001232200D2B201210620FFF7C8FCF1
:1013A0007CE00020029001200190012000900123A8
:1013B0002200D2B201210620FFF7BAFCFFF792FC0F
:1013C0006CE0DFF830C179793879000450EA0160C7
:1013D000F97850EA0120B97808430021CCE90201EC
:1013E0004648CCF80000DCE90223DCF800100220BB
:1013F00001F008FA06003000C0B20290012001900E
:101400000120009001232200D2B201210620FFF723
:101410008FFC43E001F05BFA06003000C0B202909E
:10142000012001900120009001232200D2B201216D
:101430000620FFF77DFC31E02B4F39683048014032
:10144000B1F1005F1CD100222021404601F00AF8D2
:101450000020029001200190012000900123220031
:10146000D2B201210620FFF763FC5FF0AA302549C4
:101470000860386880F308882348006880470CE0DB
:101480000120029001200190012000900123220000
:10149000D2B201210620FFF74BFCFFE7002089F8BC
:1014A000000008480078002801D1FFF72AFC07B0A7
:1014B000BDE8F08F0CED00E00400FA055F010020AC
:1014C000D00000205C010020D0340008040000207F
:1014D0005D0100205E01002050000020000002405D
:1014E00090000020FFFF030800800008300100206A
:1014F000440100204801002000000408FCFF03080C
:101500000000FE2F00000020048000082DE9F041BB
:1015100004000D00002C01D101202CE120680028DE
:1015200002D02068102805D34FF41071DFF87C0238
:10153000FFF759FB002D23D0012D21D0022D1FD004
:10154000032D1DD0042D1BD0052D19D0062D17D02D
:10155000072D15D0082D13D0092D11D00A2D0FD02D
:101560000B2D0DD00C2D0BD00D2D09D00E2D07D02D
:101570000F2D05D040F24121DFF83002FFF733FB99
:10158000DFF82C72386810F00F00A84207D23D70C7
:10159000386810F00F00A84201D00120EBE020785D
:1015A00080073AD52078400705D5DFF808020168A2
:1015B00051F4E05101602078000705D5DFF8F4010F
:1015C000016851F460410160A06800281DD0A06846
:1015D00080281AD0A068902817D0A068A02814D01E
:1015E000A068B02811D0A068C0280ED0A068D0286C
:1015F0000BD0A068E02808D0A068F02805D04FF4F0
:101600001971DFF8A801FFF7EEFADFF8A8110A68F0
:1016100032F0F002A06802430A602078C00749D582
:10162000606800280DD0606801280AD06068022830
:1016300007D06068032804D040F26B215B48FFF7B5
:10164000D2FA6068012805D15B480068800313D492
:10165000012090E06068022802D06068032805D16C
:1016600055480068800107D4012084E05248006892
:10167000800701D401207EE0DFF83881D8F800101F
:101680008908890060680143C8F80010FFF70EFB65
:101690000600D8F8000010F00C006168B0EB810F74
:1016A00008D0FFF703FB801B41F289318842F0D359
:1016B000032060E0386810F00F00854207D23D70CB
:1016C000386810F00F00A84201D0012053E02078C4
:1016D00040071ED5E068002814D0E068B0F5805FB0
:1016E00010D0E068B0F5A05F0CD0E068B0F5C05F46
:1016F00008D0E068B0F5E05F04D040F2A9212B48A3
:10170000FFF771FA2B490A6832F4E052E0680243AD
:101710000A60207800071FD52069002814D02069AE
:10172000B0F5805F10D02069B0F5A05F0CD02069C3
:10173000B0F5C05F08D02069B0F5E05F04D04FF489
:101740002C711A48FFF74FFA1A48016831F46041CA
:10175000226951EAC201016000F036F91749154AC1
:101760001268C2F30312895CC84015490860002062
:1017700001F0ECFA0020BDE8F081114800687047E4
:1017800080B5FFF7FAFF0F490A4A1268C2F38222B6
:10179000895CC84002BD80B5FFF7EFFF0949054AE3
:1017A0001268C2F34232895CC84002BD3832000878
:1017B000003C024008380240003802409C340008D7
:1017C00048000020C834000880B50B48016851F477
:1017D00000710160016851F480610160016851F499
:1017E00080710160032000F025FF002001F0AEFAB7
:1017F00001F0D2FA002002BD003C024038B586B0AC
:1018000014220021684600F0E9FB002005904048C2
:10181000016851F004010160016811F004010591B3
:10182000059900210591016851F08001016001686E
:1018300011F080010591059900210591016851F091
:1018400001010160016811F0010105910599002174
:101850000591016851F002010160016811F0020177
:101860000591059900210591016851F00801016079
:10187000006810F0080005900598264C00222021F1
:10188000200000F0EFFD4FF400500090224801903E
:1018900000200290214D6946280000F0A9FB41F686
:1018A000FF700090032001900020029069462800FC
:1018B00000F09EFB49F6DF1000900320019000200D
:1018C00002906946200000F093FB20200090012048
:1018D000019000200290002003906946200000F053
:1018E00087FB4FF2F77000900320019000200290D8
:1018F00069460B4800F07CFB042000900320019017
:10190000002002906946074800F072FB07B030BD26
:101910003038024000000240000021100008024060
:1019200000040240000C024062F30F2262F31F42E7
:10193000401810F0030308D0C91A1FD3DB0748BFB3
:1019400000F8012D28BF20F8022D130030B41446F2
:101950001546103928BF20E93C00FAD8490728BFAE
:1019600020E90C0048BF40F8042D890028BF20F86A
:10197000022D48BF00F8012D30BC7047C91818BFB0
:1019800000F8012DCB0728BF00F8012D704730B4B7
:10199000002513E050F8042BD30744BFA9F101033D
:1019A0009A18091F042942F8045BFAD213468C07DF
:1019B00044BF15809B1CC90748BF1D7050F8041B0D
:1019C0000029E7D130BC70472DE9F0430024002501
:1019D000002600275FF00008DFF8DC05006810F043
:1019E0000C00002806D0042807D0082807D00C28AF
:1019F00034D060E0DFF8C4055FE032485DE0DFF836
:101A0000C090D9F8000010F03F000400D9F80000A1
:101A100040020CD5D9F80000C0F388102949A1FB79
:101A200000012200002301F0D7F905000CE0D9F8ED
:101A30000000C0F38810DFF88415A1FB000122002C
:101A4000002301F0C9F90500D9F80000C0F30140F6
:101A5000401C40000600B5FBF6F02EE0DFF8609079
:101A6000D9F8000010F03F000400D9F8000040024F
:101A70000CD5D9F80000C0F388101249A1FB000171
:101A80002200002301F0A8F905000CE0D9F80000BD
:101A9000C0F38810DFF82415A1FB00012200002309
:101AA00001F09AF90500D9F80000C0F302700700B0
:101AB000B5FBF7F001E0DFF80405BDE8F0830000B6
:101AC0000438024000127A002DE9FC410400002590
:101AD0002068102805D34FF45061DFF8D004FFF7D9
:101AE00082F82078C0077AD5606800280DD0606839
:101AF000B0F5803F09D06068B0F5A02F05D040F662
:101B00000551DFF8A804FFF76EF8DFF8AC040168B0
:101B100011F00C01042913D0016811F00C010829FF
:101B200004D1DFF8A0140968490209D4006810F054
:101B30000C000C280ED1DFF88C040068400209D597
:101B4000DFF870040068800349D56068002846D13A
:101B5000012029E26068B0F5803F06D1DFF8540427
:101B6000016851F48031016018E06068B0F5A02F81
:101B70000AD1DFF84004016851F480210160016856
:101B800051F48031016009E0DFF82804016831F484
:101B900080310160016831F48021016060680028B3
:101BA0000ED0FFF783F80500DFF808040068800313
:101BB00015D4FFF77BF8401B6528F5D30320F3E12C
:101BC000FFF774F80500DFF8EC030068800306D522
:101BD000FFF76CF8401B6528F5D30320E4E120787B
:101BE000800771D5E068002808D0E068012805D09A
:101BF00040F63D51DFF8B403FEF7F5FF20692028D9
:101C000005D340F63E51DFF8A403FEF7ECFFDFF802
:101C1000A803016811F00C0F13D0016811F00C013A
:101C2000082904D1DFF89C130968490209D5006826
:101C300010F00C000C2816D1DFF888030068400271
:101C400011D4DFF870030168890704D5E168012920
:101C500001D00120A8E1016831F0F801226951EAC0
:101C6000C201016030E0E06800281AD00120DFF8EE
:101C700058130860FFF71AF80500DFF83803016809
:101C8000890706D4FFF712F8401B0328F5D3032079
:101C90008AE1016831F0F801226951EAC20101606C
:101CA00012E00020DFF820130860FEF7FFFF0500B8
:101CB000DFF800030068800706D5FEF7F7FF401B3A
:101CC0000328F5D303206FE12078000734D560693D
:101CD000002808D06069012805D040F68451DFF85B
:101CE000CC02FEF780FF6069002812D00120DFF8E7
:101CF000DC120860FEF7DAFF0500DFF8C4020068B6
:101D0000800719D4FEF7D2FF401B0328F5D3032028
:101D10004AE10020DFF8B4120860FEF7C7FF0500B3
:101D2000DFF89C020068800706D5FEF7BFFF401B66
:101D30000328F5D3032037E12078400740F186805F
:101D40000026A06800280BD0A068012808D0A06851
:101D5000052805D04FF45B61DFF85002FEF743FF22
:101D6000DFF86C723868C0000CD40020009038682E
:101D700050F080503860386810F080500090009823
:101D800001200600DFF84C82D8F80000C00513D40B
:101D9000D8F8000050F48070C8F80000FEF786FF05
:101DA0000500D8F80000C00506D4FEF77FFF401BF1
:101DB0000328F6D30320F7E0A068012805D17C486A
:101DC000016851F00101016015E0A068052809D102
:101DD0007748016851F004010160016851F0010188
:101DE000016008E072480168490849000160016823
:101DF00031F004010160A06800280FD0FEF756FF03
:101E000005006B480068800718D4FEF74FFF401BA1
:101E100041F289318842F4D30320C5E0FEF746FF42
:101E2000050063480068800708D5FEF73FFF401BA8
:101E300041F289318842F4D30320B5E03000C0B2CA
:101E4000012803D1386830F080503860A06900283C
:101E50000AD0A069012807D0A069022804D040F662
:101E6000F3515248FEF7BFFEA069002800F09B80A6
:101E70005148006810F00C00082800F09280A0691A
:101E800002287DD1E069002808D0E069B0F5800F14
:101E900004D040F6FC514548FEF7A5FE206A4028D4
:101EA00004D340F6FD514148FEF79DFE606A32289A
:101EB00004D3606A40F2B111884204D340F6FE5167
:101EC0003A48FEF790FEA06A02280DD0A06A0428C6
:101ED0000AD0A06A062807D0A06A082804D040F6D5
:101EE000FF513248FEF77FFEE06A022802D3E06A23
:101EF000102804D34FF460612C48FEF774FE206B69
:101F0000022802D3206B082804D340F60161274839
:101F1000FEF769FE304E00203060FEF7C7FE070076
:101F2000DFF89080D8F80000800106D5FEF7BEFEED
:101F3000C01B0328F4D3032036E0E169206A014383
:101F4000606A51EA8011A06A4008401E51EA0041CF
:101F5000E06A51EA0061206B51EA007119480160A2
:101F600001203060FEF7A2FE0500D8F800008001D5
:101F700019D4FEF79BFE401B0328F6D3032013E081
:101F8000002015490860FEF791FE05000948006829
:101F9000800108D5FEF78AFE401B0328F6D30320F4
:101FA00002E0012000E00020BDE8F6815C3100087D
:101FB0007038024000380240083802400024F40023
:101FC000743802400438024000004742800E474205
:101FD00040380240007000406000474210B504469F
:101FE00010460A4601462046FFF79EFC204610BDDB
:101FF0002DE9F84F04000D00002600275FF0000BCC
:10200000DFF8E804844220D0DFF8E40484421CD0E6
:10201000DFF8E004844218D0DFF8DC04844214D0F6
:10202000DFF8D804844210D0DFF8D40484420CD006
:10203000DFF8D004844208D0DFF8CC04844204D016
:10204000B321DFF8C804FEF7CEFD2868000404D0F1
:102050002868000C0004002804D0B421DFF8AC0488
:10206000FEF7C1FD6868002831D0686801282ED0CD
:10207000686811282BD06868022828D06868122860
:1020800025D06868DFF88814884220D06868DFF8B7
:10209000841488421BD06868DFF87C14884216D00C
:1020A0006868DFF87814884211D06868DFF8701427
:1020B00088420CD06868DFF86C14884207D06868E2
:1020C000032804D0B521DFF84404FEF78CFDA8688E
:1020D00000280AD0A868012807D0A868022804D0E0
:1020E000B621DFF82804FEF77EFD5FF00008B8F1A6
:1020F000100F80F0B5815FF0010919FA08F00600B1
:10210000286830400700B74240F0A781686802287D
:1021100003D06868122840F0C6802869002800F0C3
:10212000A8802869092800F0A4802869002800F008
:10213000A0802869002800F09C802869002800F011
:1021400098802869002800F094802869012800F010
:1021500090802869012800F08C802869022800F00E
:1021600088802869022800F084802869022800F00D
:102170008080286903287CD02869042879D02869C0
:10218000042876D02869042873D02869052870D0DF
:10219000286905286DD0286909286AD02869062889
:1021A00067D02869092864D02869072861D0286980
:1021B00007285ED0286907285BD02869082858D0EE
:1021C0002869082855D02869082852D02869092884
:1021D0004FD0286909284CD028690A2849D0286995
:1021E0000A2846D028690B2843D028690C2840D0FB
:1021F00028690C283DD028690D283AD028690F2875
:1022000037D02869052834D028690C2831D02869AE
:1022100006282ED0286903282BD02869042828D026
:102220002869052825D02869062822D0286906288B
:102230001FD0286907281CD02869072819D02869C9
:10224000072816D02869072813D02869082810D035
:10225000286908280DD0286909280AD028690A2881
:1022600007D028690A2804D0C721DFF8A002FEF7AA
:10227000BAFC4046C00804EB8000016A0F2218F047
:102280000700C0B28000824091432A6918F007001D
:10229000C0B28000824011438B464046C00804EB28
:1022A0008000C0F820B021685FF0030A4046C0B249
:1022B00040001AFA00F081432A7912F003024046E6
:1022C000C0B24000824011430091009820606868CD
:1022D000012808D06868022805D06868112802D053
:1022E000686812282CD1E86800280DD0E868012819
:1022F0000AD0E868022807D0E868032804D0DA2169
:10230000DFF80802FEF76FFCA1684046C0B240004B
:102310001AFA00F08143EA684046C0B240008240A9
:102320001143A160606819FA08F930EA09006A6887
:10233000C2F3001212FA08F2104300900098606095
:10234000D4F80CB04046C0B240001AFA00FA3BEA9A
:102350000A0BA9684046C0B24000814051EA0B0B0D
:10236000C4F80CB06868C00077D500200090DFF892
:10237000B801016851F480410160006810F48040A8
:1023800000900098DFF8A4214046800852F8201001
:102390000F2318F00300C0B2800083409943DFF898
:1023A0004C01844201D1002324E0DFF8440184423F
:1023B00001D101231EE0DFF83C01844201D1022358
:1023C00018E0DFF83401844201D1032312E0DFF882
:1023D0002C01844201D104230CE0DFF82401844263
:1023E00001D1052306E0DFF81C01844201D1062358
:1023F00000E00723DBB218F00300C0B28000834086
:1024000019434046800842F82010DFF82421106864
:10241000B8436B68DB0300D538431060DFF8142144
:102420001168B9436B689B0300D539431160DFF82D
:1024300008211068B8436B68DB0200D53843106090
:10244000DFF8F810D1F800B03BEA070B6A68920297
:1024500001D557EA0B0BC1F800B018F1010846E6A8
:10246000BDE8F18F70B504000E001500300080B299
:10247000002804D140F29F112448FEF7B4FB280045
:10248000C0B2002808D02800C0B2012804D04FF400
:10249000D0711E48FEF7A7FB2800C0B2002803D069
:1024A000300080B2A06103E0300080B20004A0617F
:1024B00070BD38B504000D00280080B2002804D19A
:1024C0004FF4DB711148FEF78EFB6169280080B282
:1024D0000140280080B2814204D1280080B200046B
:1024E000A06102E0280080B2A06131BD000002407E
:1024F0000004024000080240000C024000100240AC
:102500000014024000180240001C0240CC310008B8
:102510000000111000002110000031100000121006
:1025200000002210000032104438024008380140F8
:10253000003C0140043C0140083C01400C3C01408F
:1025400010B410F00703DFF8884122684FF6FF014E
:102550000A40DFF8801151EA03210A43226010BCCF
:102560007047DFF86C010068C0F30220704701007B
:1025700049B200290AD4012210F01F018A40DFF875
:10258000581103005BB25B0941F82320704710B477
:10259000020052B2002A06D40A01DFF840310400DA
:1025A00064B21A5509E00A01DFF83431040064B25C
:1025B00014F00F04234403F8042C10BC704770B4CB
:1025C000030013F00704D4F10700052801D3042009
:1025D00001E0D4F10700251D072D01D2002500E000
:1025E000E51E012616FA00F0401E0140A94016FA29
:1025F00005F56D1E2A401143080070BC704710B5E8
:102600000400601EB0F1807F01D3012011E0601E44
:10261000DFF8D01008600F215FF0FF30FFF7B7FF41
:102620000020DFF8C41008600720DFF8C010086041
:10263000002010BD10B50400072C0CD0062C0AD0C9
:10264000052C08D0042C06D0032C04D09221DFF8EE
:10265000A000FEF7C8FA2000FFF772FF10BD2DE9B9
:10266000F04104000D0016000027102E04D3AA210B
:10267000DFF87C00FEF7B7FA102D04D3AB21DFF8AA
:102680007000FEF7B0FAFFF76CFF804632002900B9
:102690004046FFF794FF0100200040B2FFF777FFAC
:1026A000BDE8F08110B50400200040B2002804D538
:1026B000BE21DFF83C00FEF796FA200040B2FFF79B
:1026C00056FF10BD10B504002000FFF798FF10BDA5
:1026D0000CED00E00000FA0500E100E000E400E09D
:1026E00018ED00E014E000E018E000E010E000E089
:1026F0000C30000801F000428B1AA3F16051B1F5D3
:10270000801F0ADBB1F17F6F1FD242EAC102C10014
:1027100071F1004142EB507070470B15C3F1090392
:10272000212B10D2890241EA9051800201284941AF
:1027300041F0004121FA03F0C3F12003994071F107
:10274000004150417047100070476FF0000013EBDC
:10275000103F5CBF000E42EAC050704762B38B0767
:1027600008D0521E11F8013B00F8013B00F0248014
:102770008B07F6D1830740F0208000BF103A07D3C3
:1027800030B4B1E83810103AA0E83810F9D230BCB3
:10279000530724BFB1E80810A0E8081044BF51F85F
:1027A000043B40F8043BD20724BF31F8022B20F849
:1027B000022B44BF0B7803707047121F17D35B00C6
:1027C00009D151F8043B20F8023B1B0C121F20F8E2
:1027D000023BF6D20BE051F8043B00F8013B1B0A28
:1027E00020F8023B1B0C121F00F8013BF3D238BF4C
:1027F000121D521E24BF11F8013B00F8013BF8D80E
:10280000704700002DE9F84F06008A4614001D00AD
:102810005FF0010BDFF8AC72387E012801D1022095
:1028200042E001203876002E0AD0012E08D0022E78
:1028300006D0032E04D0A421DFF88C02FEF7D3F9D2
:102840004CF25038404600F049F881464846C0B244
:10285000002825D1002E05D12100C9B2504600F034
:10286000D1F813E0012E05D1210089B2504600F0C5
:10287000A6F80BE0022E04D12100504600F07CF8AF
:1028800004E022002B00504600F050F8404600F0D3
:1028900025F88146DFF834020168490849000160E3
:1028A000002038764846C0B2BDE8F28F0020874944
:1028B0000A68002A09D5874A874B1360874B136043
:1028C0000968002901D501210800C0B270477F487E
:1028D000016851F0004101600020704770B50400AC
:1028E000002600207749C861FEF7E0F90500784826
:1028F0000168C9030BD514F1010FF8D0002C04D0E6
:10290000FEF7D4F9401B8442F1D203200DE00168A8
:10291000C90701D501210160006810F4F97F03D0D7
:1029200000F091F8012000E0002070BD70B50600B5
:1029300014001D00B6F1006F02D3694886420AD325
:102940006848864202D36848864204D340F2672131
:102950005D48FEF748F95D48016831F44071016057
:10296000016851F440710160016851F0010101609A
:102970003460301D056070BD38B504000D00B4F141
:10298000006F02D3564884420AD35648844202D389
:102990005548844204D340F283214B48FEF723F983
:1029A0004A48016831F440710160016851F40071D6
:1029B0000160016851F001010160256031BD38B549
:1029C00004000D00B4F1006F02D3454884420AD3DD
:1029D0004448844202D34448844204D34FF42771CC
:1029E0003948FEF700F93948016831F44071016057
:1029F000016851F480710160016851F001010160CA
:102A0000258031BD38B504000D00B4F1006F02D34C
:102A1000334884420AD33348844202D33248844242
:102A200004D340F2B5212848FEF7DDF827480168B5
:102A300031F44071016001680160016851F00101E9
:102A40000160257031BD22480168C90606D51D49BF
:102A5000CA6952F01002CA6110210160016889063A
:102A600006D51849CA6952F00802CA6120210160DE
:102A70000168490606D51349CA6952F00402CA61C1
:102A8000402101600168090606D50E49CA6952F065
:102A90000202CA61802101600168C90507D50949A0
:102AA000CA6952F00102CA614FF480710160016885
:102AB000890706D50349CA6952F02002CA6102217A
:102AC00001607047100100207C300008103C02407B
:102AD0000C3C0240043C024023016745AB89EFCD2A
:102AE000000008080078FF1F107AFF1F2DE9F0474B
:102AF00004000D005FF0010A0026DFF84072387E06
:102B0000012801D102205FE00120387620680028EA
:102B100007D02068012804D0AB21DFF82402FEF79B
:102B200062F84CF250394846FFF7D8FE80464046DE
:102B3000C0B2002844D15FF0FF302860206801282F
:102B40000FD161682069C0B200F040F84846FFF735
:102B5000C5FE8046DFF8EC01016831F00401016038
:102B60002CE0E068A1680818002804D0E168A0689B
:102B70004118092904D3C321DFF8C401FEF733F853
:102B8000A0680600E168A06841188E4216D221694B
:102B9000C9B2300000F04EF84846FFF79FFE80466D
:102BA000DFF8A001016831F0FA0101604046C0B2CF
:102BB000002801D02E6001E0761CE3E700F096F8D3
:102BC000002038764046C0B2BDE8F08738B5040032
:102BD0000D002000C0B2002811D02000C0B2012892
:102BE0000DD02000C0B2022809D02000C0B20328B6
:102BF00005D04FF46F71DFF84801FDF7F4FF012DA8
:102C000005D040F2BD31DFF83801FDF7ECFFDFF809
:102C10003401016831F440710160016851F0040130
:102C2000016001682200D2B2120252F480321143D4
:102C3000016031BD70B504000D000026002C13D0DA
:102C4000012C11D0022C0FD0032C0DD0042C0BD052
:102C5000052C09D0062C07D0072C05D040F2DB311B
:102C6000DFF8DC00FDF7BFFF2800C0B2002810D05D
:102C70002800C0B201280CD02800C0B2022808D019
:102C80002800C0B2032804D04FF477712C48FDF718
:102C9000AAFF2800C0B2002801D100200FE02800C0
:102CA000C0B2012802D14FF4807008E02800C0B201
:102CB000022802D14FF4007001E04FF44070214926
:102CC0000A6832F440720A600A6802430A600A68BD
:102CD00032F0F8020A600A68E30053F002031A4374
:102CE0000A600A6852F480320A6070BD16480168B2
:102CF00089050FD5016831F400710160016851F454
:102D000000610160016831F400610160016851F403
:102D100000710160016849050FD5016831F48061D7
:102D20000160016851F480510160016831F4805103
:102D30000160016851F4806101607047100100205A
:102D4000EC300008103C0240003C024010B504008A
:102D50004FF47A700D490978B0FBF1F00C4909681D
:102D6000B1FBF0F0FFF7AEFC002801D001200CE031
:102D7000102C09D2002221005FF0FF30FFF76FFC1A
:102D800004480460002000E0012010BD4C00002039
:102D9000480000204400002081B0002000900C4832
:102DA000016851F480410160006810F48040009097
:102DB0000098002000900748016851F080510160A0
:102DC000006810F080500090009801B0704700BF7C
:102DD0004438024040380240BBBBE1B1B2F5803F0D
:102DE00080F07E80022A1ED98C46B1FBF2F102FBF4
:102DF00011C31B0443EA1043B3FBF2FC02FB1C3378
:102E000080B240EA0343B3FBF2F002FB103240EA27
:102E10000C4000237047022A05D98446B0FBF2F02B
:102E200002FB10C270474AB105D100F00102490807
:102E30005FEA3000704700220023704700F0E4B8DA
:102E40000B000200002100207047904271EB030C40
:102E5000F6D3B3F5803F2FD2F0B5B3FA83F7B1FACA
:102E600081F4A7F10F0E3D1B5340CEF1200602FA6C
:102E70000EF2F3415340B5F10F0746D80F3C2C44F6
:102E80004140C4F12006A040F1414140B1FBF3F6BE
:102E900003FB1611A2FB0645001BA94102D2761EB8
:102EA0008018594180EA010221FA0EF362FA0EF20B
:102EB00000215A403046F0BD30B4B1FBF3FC03FBB7
:102EC0001C11A2FB0C45001BA94103D2ACF1010C63
:102ED0008018594130BC02460B46604600217047BD
:102EE000B2F1807F65D3F0B5B2FA82F7B1FA81F41E
:102EF000C7F10F063D1B22FA06F307F1110EF2414E
:102F000020355A40B5F10F07B8D94140C4F1200629
:102F1000A040F1414140B1FBF3FC03FB1C11A2FBBB
:102F20000C45001BA94103D2BCF1010C801859418A
:102F30000F2F12D30F3FC90341EA5041B1FBF3F603
:102F400003FB1611A2FB0645D4EBC030A94102D207
:102F5000761E8018594146EACC3C07B34140C7F180
:102F60002006B840F1414140B1FBF3F603FB1611D6
:102F7000A2FB0645001BA94102D2761E80185941CA
:102F800080EA010221FA0EF3C7F1200462FA0EF280
:102F90000CFA07F05A402CFA04F13043F0BD80EAF5
:102FA000010221FA0EF3002162FA0EF260465A4045
:102FB000F0BD8C46B1FBF2F102FB11C31B0243EAE8
:102FC0001063B3FBF2FC02FB1C331B024CEA002033
:102FD00043EA1063B3FBF2FC02FB1C331B024CEA16
:102FE000002043EA1063B3FBF2FC02FB1C331B021C
:102FF0004CEA002043EA1063B3FBF2FC02FB1C32F4
:103000004CEA00200023704770470000433A5C30D0
:10301000335F776F726B73706163655C6961725C5B
:103020006E75636C656F6634343672652D66772D08
:10303000757067726164655C6634343672655F62B0
:103040006C5C447269766572735C53544D333246DE
:103050003478785F48414C5F4472697665725C539E
:1030600072635C73746D3332663478785F68616C58
:103070005F636F727465782E63000000433A5C30C2
:10308000335F776F726B73706163655C6961725CEB
:103090006E75636C656F6634343672652D66772D98
:1030A000757067726164655C6634343672655F6240
:1030B0006C5C447269766572735C53544D3332466E
:1030C0003478785F48414C5F4472697665725C532E
:1030D00072635C73746D3332663478785F68616CE8
:1030E0005F666C6173682E6300000000433A5C30D9
:1030F000335F776F726B73706163655C6961725C7B
:103100006E75636C656F6634343672652D66772D27
:10311000757067726164655C6634343672655F62CF
:103120006C5C447269766572735C53544D333246FD
:103130003478785F48414C5F4472697665725C53BD
:1031400072635C73746D3332663478785F68616C77
:103150005F666C6173685F65782E6300433A5C302C
:10316000335F776F726B73706163655C6961725C0A
:103170006E75636C656F6634343672652D66772DB7
:10318000757067726164655C6634343672655F625F
:103190006C5C447269766572735C53544D3332468D
:1031A0003478785F48414C5F4472697665725C534D
:1031B00072635C73746D3332663478785F68616C07
:1031C0005F7263635F65782E63000000433A5C3092
:1031D000335F776F726B73706163655C6961725C9A
:1031E0006E75636C656F6634343672652D66772D47
:1031F000757067726164655C6634343672655F62EF
:103200006C5C447269766572735C53544D3332461C
:103210003478785F48414C5F4472697665725C53DC
:1032200072635C73746D3332663478785F68616C96
:103230005F6770696F2E6300433A5C30335F776F6E
:10324000726B73706163655C6961725C6E75636CEF
:10325000656F6634343672652D66772D75706772CA
:103260006164655C6634343672655F626C5C4472BE
:1032700069766572735C53544D3332463478785FA7
:1032800048414C5F4472697665725C5372635C734B
:10329000746D3332663478785F68616C5F72636333
:1032A0002E630000433A5C30335F776F726B73704C
:1032B0006163655C6961725C6E75636C656F6634D1
:1032C000343672652D66772D757067726164655C42
:1032D0006634343672655F626C5C4472697665721E
:1032E000735C53544D3332463478785F48414C5FB9
:1032F0004472697665725C5372635C73746D3332C9
:10330000663478785F68616C5F756172742E6300F3
:103310000F48016851F4700101600E49086850F0CF
:103320000100086000200C4A10600A680B48024047
:103330000A600B480B4A1060086830F4802008606F
:103340000020094908605FF0006008490860704784
:1033500088ED00E00038024008380240FFFFF6FE2A
:1033600010300024043802400C38024008ED00E020
:1033700030B5016884684218416802EB5103C907FF
:1033800003D54C4401E0491C05D19A420AD012F9F8
:10339000011B12F8015B002904F8015BF3D4491EFC
:1033A000F7D5F2E70C3030BD7047FEE7FEE7FEE7E9
:1033B000FEE770477047704780B500F009F801BD1F
:1033C00080B50248FDF75FF801BD0000D000002085
:1033D00003480168034A127889180160704700BFEA
:1033E000580100204C00002010B5074979441831DD
:1033F000064C7C44163404E00A68081D11448847D2
:103400000146A142F8D110BD2C0000004800000088
:103410004EF68851CEF20001086840F47000086052
:10342000BFF34F8FBFF36F8F4FF00070E1EE100AC4
:10343000704700005BE5FFFF100100005000002016
:10344000000000002DFFFFFFE00100001C00000055
:103450000400002000F00DF8002801D0FFF7C4FFA1
:10346000AFF300800020AFF30080FDF751FB00F0C8
:1034700002F80120704700F001B800000746384606
:1034800000F002F8FBE7000080B5AFF30080024ACD
:1034900011001820ABBEFBE7260002000000000070
:1034A00000000000010203040607080901488047E4
:1034B0000148004711330008BD340008AFF3008015
:1034C000FFF7A6FFFFF7C6FF00000000010203049C
:1034D00006000020FFF7FEBFFFF7FEBFFFF7FEBFAD
:1034E000FFF7FEBFFFF7FEBFFFF7FEBFFFF7FEBF10
:1034F000FFF7FEBFFFF7FEBFFFF7FEBFFFF7FEBF00
:10350000FFF7FEBFFFF7FEBFFFF7FEBFFFF7FEBFEF
:10351000FFF7FEBFFFF7FEBFFFF7FEBFFFF7FEBFDF
:10352000FFF7FEBFFFF7FEBFFFF7FEBFFFF7FEBFCF
:10353000FFF7FEBFFFF7FEBFFFF7FEBFFFF7FEBFBF
:10354000FFF7FEBFFFF7FEBFFFF7FEBFFFF7FEBFAF
:10355000FFF7FEBFFFF7FEBFFFF7FEBFFFF7FEBF9F
:10356000FFF7FEBFFFF7FEBFFFF7FEBFFFF7FEBF8F
:10357000FFF7FEBFFFF7FEBFFFF7FEBFFFF7FEBF7F
:10358000FFF7FEBFFFF7FEBFFFF7FEBFFFF7FEBF6F
:10359000FFF7FEBFFFF7FEBFFFF7FEBFFFF7FEBF5F
:1035A000FFF7FEBFFFF7FEBFFFF7FEBFFFF7FEBF4F
:1035B000FFF7FEBFFFF7FEBFFFF7FEBFFFF7FEBF3F
:1035C000FFF7FEBFFFF7FEBFFFF7FEBFFFF7FEBF2F
:1035D000FFF7FEBFFFF7FEBFFFF7FEBFFFF7FEBF1F
:1035E000FFF7FEBFFFF7FEBFFFF7FEBFFFF7FEBF0F
:1035F000FFF7FEBFFFF7FEBFFFF7FEBFFFF7FEBFFF
:10360000FFF7FEBFFFF7FEBFFFF7FEBFFFF7FEBFEE
:10361000FFF7FEBFFFF7FEBFFFF7FEBFFFF7FEBFDE
:10362000FFF7FEBFFFF7FEBF01A55AC2000010FC66
:06363000000324F4000178
:04000005080034BDFE
:00000001FF
